:020000040000fa
:080000000002040000000000f2
:020000040000fa
:100008004c0300004c0300004c0300004c030000ac
:100018004c0300004c0300004c0300004c0300009c
:100028004c0300004c0300004c0300004c0300008c
:100038004c0300004c0300004c030000f2320000a7
:100048004c0300004c0300004c0300002c3300005c
:10005800103300004c0300004c0300004c03000068
:100068004c030000aa0200004c0300004c030000ef
:100078004c0300004c0300004c0300004c0300003c
:100088004c0300004c0300004c0300004c0300002c
:100098004c0300004c03000072330000563300008c
:1000a8004c0300004c0300004c0300004c0300000c
:1000b8004c0300004c0300004c0300004c030000fc
:1000c8004c0300004c0300004c0300004c030000ec
:1000d8004c0300004c0300004c0300004c030000dc
:1000e8004c0300004c0300004c0300004c030000cc
:1000f8004c0300004c0300004c0300004c030000bc
:100108004c0300004c0300004c0300004c030000ab
:100118004c0300004c0300004c0300004c0300009b
:100128004c0300004c0300004c0300004c0300008b
:100138004c0300004c0300004c0300004c0300007b
:100148004c0300004c0300004c0300004c0300006b
:100158004c0300004c0300004c0300004c0300005b
:100168004c0300004c030000ac330000e6330000f1
:100178004c0300004c0300004c0300004c0300003b
:100188001e340000023400004c0300004c03000041
:100198004c0300004c0300004c0300004c0300001b
:1001a8004c0300004c0300004c0300004c0300000b
:1001b8004c0300004c0300004c0300004c030000fb
:1001c8004c0300004c0300004c0300004c030000eb
:1001d8004c0300004c0300004c0300004c030000db
:1001e8004c0300004c0300004c0300004c030000cb
:0801f8004c0300004c03000061
:020000040000fa
:100208004c0300004c0300004c0300004c030000aa
:100218004c0300004c0300004c0300004c0300009a
:100228004c0300004c0300004c0300004c0300008a
:100238004c0300004c0300004c030000f2320000a5
:100248004c0300004c0300004c0300002c3300005a
:10025800103300004c0300004c0300004c03000066
:100268004c030000aa0200004c0300004c030000ed
:100278004c0300004c0300004c0300004c0300003a
:100288004c0300004c0300004c0300004c0300002a
:100298004c0300004c03000072330000563300008a
:1002a8004c0300004c0300004c0300004c0300000a
:1002b8004c0300004c0300004c0300004c030000fa
:1002c8004c0300004c0300004c0300004c030000ea
:1002d8004c0300004c0300004c0300004c030000da
:1002e8004c0300004c0300004c0300004c030000ca
:1002f8004c0300004c0300004c0300004c030000ba
:100308004c0300004c0300004c0300004c030000a9
:100318004c0300004c0300004c0300004c03000099
:100328004c0300004c0300004c0300004c03000089
:100338004c0300004c0300004c0300004c03000079
:100348004c0300004c0300004c0300004c03000069
:100358004c0300004c0300004c0300004c03000059
:100368004c0300004c030000ac330000e6330000ef
:100378004c0300004c0300004c0300004c03000039
:100388001e340000023400004c0300004c0300003f
:100398004c0300004c0300004c0300004c03000019
:1003a8004c0300004c0300004c0300004c03000009
:1003b8004c0300004c0300004c0300004c030000f9
:1003c8004c0300004c0300004c0300004c030000e9
:1003d8004c0300004c0300004c0300004c030000d9
:1003e8004c0300004c0300004c0300004c030000c9
:0803f8004c0300004c0300005f
:020000040000fa
:100400008f4e21000e7f24000e01880000000000a6
:10041000000020000000e000020032000001200087
:10042000200288000c000700e0f3230001002000f8
:1004300011000700000020000000e0000200320070
:100440000000020000000000a24b020000000000bb
:100450000040da000000fe004440a900e08b2000cc
:100460000000e0000300320000002000a00188002e
:100470004440a80000000600910188008000780038
:100480000000eb0015003700e280400032a0b4000d
:100490009101ba00e280400032a0b4009102ba009b
:1004a000e280400032a0b4000002eb00472bde00e7
:1004b000f507b200602ce10004003a000059eb009f
:1004c0008301e900fdff3e00040037006128e100e0
:1004d000010032000082eb00040007001101ba00a5
:1004e0000200e000e8ff3a00000006003159ba00bf
:1004f0008301e9000c0032002159ba008301e900b0
:10050000080032000400e00003003a00e2804000ee
:1005100032a0b400f5ff370011d9ba008301e90019
:10052000faff3a008100e800e180400032a0b40008
:1005300000000600003e040000000000a04c040083
:1005400000000000da3c0400000000005e480400e7
:10055000000000000000fa008620a9000080fa00d8
:10056000004006000400fa000002eb00040f7800cf
:100570000002eb0014079800ee0307000000eb00f8
:10058000f403070004002800040f7800c4092000c9
:10059000140798009e0090001e00780025040700b4
:1005a0000080fa00000006000800fa0020479800ca
:1005b0002107980032079800270407002a04070043
:1005c0002e4290000482fb000402420004427800a4
:1005d0000440780041040700230407000002eb00f8
:1005e000040f7800090037002e02900014427800b2
:1005f000ae0290008502e8002507980004407800cc
:1006000036040700180407001e0fe8003e029000a1
:100610009e027800848f5200f3ff39003f040700e8
:10062000110407000002eb00040078000080fa00cb
:10063000000006000600fa00004f7800110798003d
:100640002207980004040700070407009e42780070
:100650000582fb0004024200044278000404a0006a
:10066000044078001d040700ff030700823e2000bd
:100670009e0090002e0090002c040700fa03070053
:1006800026040700f80307000002eb0004007800ce
:100690000080fa00000006000040da000000fe00c2
:1006a000800078001104b100030035009101b10011
:1006b00001003c000050a000000006006900e100bd
:1006c000040035006d00e100030034000002b100b9
:1006d0000100320000000500100005001004b10008
:1006e000030035009001b10001003c00100005003e
:1006f000000005001004b100070035009001b100b2
:10070000040034007000b100030035009001b10016
:1007100001003c00100005000000050000c0da00e8
:10072000000006000a00fa00e20f500022003e001e
:1007300034a78000e10f520006003200872320001a
:10074000462320002423200005232000e08f5300af
:1007500004003a00872220004622200024222000a4
:1007600005222000000028001500600003003a0068
:10077000800b780007002800958a73000540200050
:100780009482620001003a0014a0a0008202780066
:1007900006003700940378000710b200fdff320016
:1007a000b103fb00070b78008502e900e08f5200df
:1007b000f8ff3a000800370034002000c0bf9f0057
:1007c000e2bf9f00b4bf9f00d1bf9f006a80570067
:1007d000d2ff07006fb99700020078000080fa008e
:1007e0000000060000c0da00000006000a00fa005f
:1007f000e00f500027003a0034a78000e10f5200bc
:1008000006003200872320006623200025232000d5
:1008100004232000e08f530004003a0087222000c8
:10082000662220002522200004222000000028004b
:100830001400600003003a00800b780007002800d5
:10084000148a7300020278000c0037008703e90065
:10085000950178006180610002003a00e08f53004a
:10086000faff3a0015007800e1036000070032004b
:10087000960378000402e90087587800e00f5200e0
:1008800002003200070a2000f1ff37000400510087
:100890000800370024002000c0bf9f00b4bf9f00a5
:1008a0006a805700d1bf9f00e2bf9f00cdff0700c5
:1008b0006fb897000080fa0000000600839f680070
:1008c0000100e00002003d0060001000e080180020
:1008d0000300e00002003d0060011100e08119000a
:1008e000050007004f00e00002003b006000100020
:1008f000e0801800000006006022b8000602200018
:100900000000d0008180d2000482d2008582d20013
:100910000000a0000202520083825a00030031004e
:100920000202420083824a000000a1000603e9009f
:10093000f3ff3a0000000600889fbe008a9fbe00b9
:100940003004be002005be000404440085844c0031
:1009500006054d0087854d000898be000a90be0030
:100960000440e10005c8e10006d0e10007d8e1003d
:1009700002003100680040001008e8004f05be008a
:100980004f04be00000006001000fa00889fbe0061
:100990008a9fbe00110020000605be000404be00b0
:1009a0003002be002003be00c4b79f00d5b79f0031
:1009b000e6b79f00f7b79f000802520089825a00ed
:1009c0000a035b008b835b0084bf9f0095bf9f0081
:1009d000a6bf9f00b7bf9f000498be000698be0048
:1009e0004fb29700dfb297006fb39700ffb3970045
:1009f000b0000700010039008000eb004f05be0089
:100a0000108810004f04be000080fa0000000600ad
:100a10001400fa00889fbe008a9fbe008c9fbe0013
:100a20000006eb0079000700ccb79f00bcb79f0021
:100a3000acb79f009cb79f008cb79f000605be0017
:100a40000404be000d0420004fb39700bfb297000e
:100a5000860343002fb29700e00f530004003d00cf
:100a6000990007000f004000b3ff070003003700a4
:100a7000950007000f004000c3ff0700cfb29700aa
:100a800095bf9f00e08f5200090035006600070007
:100a900014002000050020006033b8000000720040
:100aa0008180720002017300838173005700070088
:100ab0000c06e8008d0f5600e3ff3a001fba9700be
:100ac000e00f520005003d000802be000a03be0010
:100ad00000fe2f000f00400097ff07004faa97006d
:100ae000e00f520008003a000fb497009fb497003f
:100af0002fb59700bfb59700d8b79f00e9b79f0003
:100b0000fab79f008bbf9f00470007004f06be004b
:100b10004f05be004f04be000080fa000000060032
:100b2000881f780018002000881f7800b8ff070091
:100b30008f87e9004f04780000000600801feb005b
:100b4000b3ff07008f87e90000000600889fbe0002
:100b50008a9fbe004100070008003d007a000700a0
:100b600043000700180020004600070008003d0071
:100b70002f0007000004eb00050037000004eb0025
:100b80004000070002003d00290007001800200077
:100b9000e3ff0700e00f5400010032003e000700b1
:100ba0004f05be004f04be0000000600889fbe0037
:100bb0008a9fbe008c1f78002800070006003d00b9
:100bc000610007001c002000290007003900070011
:100bd00006003d00040037000006eb002900070076
:100be00002003d005800070012000700d3ff070075
:100bf000e00f560001003200270007004f06780082
:100c00004f05be004f04be000000060001000700b3
:100c10000000060090b79f00a1b79f00b2b79f00e9
:100c2000c3b79f0000000600070007000000060091
:100c3000450007000402540085825c0006035d0045
:100c400087835d00000006001fb09700afb09700db
:100c50003fb19700cfb1970000000600e00f5000b1
:100c6000e08f5800e00f5900e08f590000000600a7
:100c70000000540081805c0002015d0083815d0002
:100c800000000600e00f5200e08f5a00e00f5b000a
:100c9000e08f5b00000006006022b8006033b800ff
:100ca0000000520081805a0002015b0083815b00da
:100cb000000006000820e10009a8e1000ab0e100f8
:100cc0000bb8e100000006004f2bde00deff07003e
:100cd00086837300858242004f23de00a7b79f0002
:100ce000868272000402420095b79f00ffaa970017
:100cf0004f2bde00858242000602720084b79f00ff
:100d00006faa97004f23de00040242008682720021
:100d1000f5af9f004f18de0000027200caff070007
:100d2000e4af9f00000040008180480002014900bc
:100d3000838149000802be000a03be00b5ff070018
:100d400000fe2f00000006006044b8006055b800a7
:100d500000000600889fbe008a9fbe008c1f78009e
:100d60000006eb00e00f5000e08f5800e00f590044
:100d7000e08f590007003d006044b8006055b8009e
:100d80001c0020000000540081805c0002015d0016
:100d900083815d00e00f5200e08f5a00e00f5b009e
:100da000e08f5b0007003d006044b8006055b8006c
:100db0000c00a2000402540085825c0006035d0062
:100dc00087835d00ae000700e00f5600060032008a
:100dd0006022b8006033b8000000520081805a00e1
:100de00002015b0083815b004f0678004f05be0067
:100df0004f04be0000000600020ab900001bb90043
:100e00000200b8008100420081004300000006009b
:100e100081037800bc0007000001be006000b8003c
:100e20000478a30013003a006220e10015003e00a0
:100e30000d0039008301d1000281d3008180d300ed
:100e40008301d1000281d3008180d3008301d100ce
:100e50000281d3008180d3000538b000c42add00b0
:100e6000f300b2008381720007f0a70003f0a00036
:100e700000000600f3ff2700f2ff2f006110b90009
:100e8000fbff370003ff2700f7ff37004f89de0025
:100e900082017800b100370014002000bf00370045
:100ea000889fbe008a9fbe008c1f7800d600070076
:100eb000dd00330003866c006450e1002e00320038
:100ec0006420e100330032006150e1002f00320065
:100ed0006120e1003100320085855500eb07b0004c
:100ee0000900200008042000050037000804440021
:100ef00089844c000a0031000603430087834b00bd
:100f00000001530081815b00f8ff33000203be0043
:100f10000800a0000804440089844c00f6ff390052
:100f2000c639dd0083017300010032001300200088
:100f30008904d1000884d3000998a3000500320079
:100f40000800a7000300a0008904d1000884d30092
:100f50008b05e8008904d1000884d3000001eb0070
:100f60000281d200c000070001f0a1000cf0a70030
:100f700001f0a000b50037006420e100b7003200a6
:100f80000801be000200be00f7ff37006120e1004b
:100f9000b20032006000b800f3ff3700000020000c
:100fa00001f82700f0ff3700889fbe008a9fbe002f
:100fb0008c1f7800940007009b00330003866c00b0
:100fc0006450e100240032006420e1002700320078
:100fd0006150e100220032006120e1002100320076
:100fe0008b854200eb07b1000134b800003ab8002d
:100ff0000804420089844a00013ab8000030b80071
:101000008880400009014a000400330000004000cd
:1010100081804800020149008b05e900c909dd0013
:10102000830170000100320013002000c814de00ac
:101030004814dd004709de001200b200c808de00d7
:10104000088470008800070001f0a1000cf0a700e0
:1010500001f0a0007d0037006120e1007f00320038
:101060000801be000200be00f7ff37006150e1003a
:10107000fcff3a0079003700f4ff2f0047003700eb
:10108000889fbe008a9fbe008c9fbe000404b800eb
:101090000506b8008904460060854e000606b800c3
:1010a0000a054600e0854e000706b8008b0546009d
:1010b000040eb800890446000a854e00e0854d0004
:1010c000050eb8000a0546008b854e00060eb800d6
:1010d0008b0546000416b8000a0546008b854e00b5
:1010e0000516b8008b054600041eb8008b054600a7
:1010f0000800be000a01be004f06be004f05be003c
:101100004f04be0000000600c70ade00f107b2006f
:10111000f50fb20008003200e1cf420002003200b9
:101120000170a00024000500810f70000100320052
:101130000408050044000500810f700002003a0019
:10114000140005008502e9000000400081c048004d
:10115000fcff3b000170a00024000500881f780000
:10116000030478000300e00007003d006000100069
:10117000e080180060011900e081190002003b00c6
:1011800001f02d00030037005d00070008f0a70004
:1011900001f0a0004f04780000000600889fbe0008
:1011a0008a9fbe00841f7800170007004f00780058
:1011b00011003300f0ff2f00838f6c0006003b000e
:1011c000040565000a00a7000800370009f0a60022
:1011d0001000200008003700820f5400838f5c004d
:1011e000030039001000200001003e000000200034
:1011f00009f0a7000000ea004f05be004f04be0042
:101200000000e000000006000004be00beff070072
:101210000003be000405be000200be00baff0700c6
:10122000844f7500000006000200be006450e1001b
:10123000050036006420e100020036000968a300c2
:1012400001003a000800be000160a0004f067800cf
:101250004f05be004f04be0000000600f0ff2f0047
:10126000f1ff2700f9ff3700810020006180550061
:101270000b003d000b00200061fe2f000100e1008b
:101280001d00340082817100610164008904d10075
:101290000884d3000000e800faff3a007100200043
:1012a0006100640003007000020060000900320069
:1012b00061044400e0844c000988a5000500320068
:1012c0008b05e8006808e10002003a008904d100bb
:1012d0000884d300f20f20000258e10005003d0011
:1012e000c75ddd00f907b20089807500080078004d
:1012f000000006000bf827008b00780000000500b6
:10130000889fbe008a9fbe000082700004027100a8
:1013100004827100260032000004be000200be00fc
:101320006011b8006b092000950220000182cf00f7
:101330000a0039000541b1000082cf0007003900e2
:101340000541b1000982cf00040039000541b10018
:101350000882cf00010039000541b100054252006a
:10136000120032000a003b008281710061016400ba
:101370008100d1000080d3008984d3000884d30089
:101380008b05e8000442e800f7ff3a000700370049
:101390000804440089844c00000048008180480013
:1013a0008b05e9000442e900f9ff3a00aeff0700af
:1013b0004f05be004f04be00000006000200fa0008
:1013c000000f780084e0a9001e0278000442780033
:1013d0006742620067426200674262000482fb006b
:1013e000670262004c22dd0036058000f5ff280010
:1013f0008502630005027200340588009e027800b1
:10140000688262004322de0004427800614262008a
:101410000482fb00610262004722dd00a604800016
:10142000f5f72f008502630005027200a40488000e
:101430000080fa00000006000400fa00000f7800a7
:10144000110798000002eb00340888001e0290008b
:10145000640888001e027800840888000080fa0072
:10146000000006000000fa0004118000660262001d
:10147000e60f520002003a003411800003003700ea
:1014800035118000f40f200004826200040078000f
:101490000080fa00000006000000fa0084118000bd
:1014a00066026200e60f520002003a00b4118000aa
:1014b00003003700b5118000f40f200004826200a1
:1014c000040078000080fa00000006000000fa0026
:1014d0008412800066026200e60f520002003a00a9
:1014e000b412800003003700b5128000f40f200012
:1014f00004826200040078000080fa000000060008
:101500000000fa008415800066026200e60f5200b7
:1015100002003a00b415800003003700b5158000c2
:10152000f40f200004826200040078000080fa00ba
:10153000000006000000fa0007e2a9009600a900da
:101540009620a9008600a9008620a9000080fa0044
:10155000000006000200fa00000f78008600a900d3
:101560008620a9001e0278000442780067426200cb
:1015700067426200674262000482fb006702620009
:101580006605800085ff2f0085026300050272005a
:1015900064058800040720001e0262004422de0069
:1015a00004427800674262000482fb006702620026
:1015b0004422dd0066058000f5f82f0085026300f7
:1015c00005027200640588009e027800688262004d
:1015d0004322de0004427800614262000482fb0084
:1015e00061026200b6048000e5ff2f0085026300ff
:1015f00005027200b4048800040820001e02620084
:101600004722de0004427800614262000482fb004f
:101610006102620004024200b6048000d5ff2f0080
:101620008502630005027200b40488000080fa009d
:10163000000006000400fa00000f7800110798006f
:101640001e029000241088001e02780034108800ca
:101650000080fa00000006000000fa000602a80060
:101660000080fa00000006000000fa000000000000
:101670003410800061026200e00f5200fcff3a006b
:101680003410800062026200e00f5200f8ff3a005e
:101690003410800064026200e00f5200f4ff3a0050
:1016a0003410800068026200e00f5200f0ff3a0040
:1016b0003410800070026200e00f5200ecff3a002c
:1016c000451080000400240004826200e00f5200f4
:1016d000e7ff3a000080fa00000006000200fa006e
:1016e000004f78009e4278000582fb0014108800ad
:1016f000451080000408200004826200e00f5200c0
:101700000200320000c2eb00010037000042eb0093
:10171000044078000080fa00000006000000fa0093
:101720000642a8000080fa00000006000800fa0047
:101730001007980021079800320798000002eb007c
:10174000040f7800270037000662a8000800370061
:101750009e0278003e029000848f52000200310009
:101760001e0fe800020037001e0290002100370023
:10177000f501070000427800e04f5200f4ff32000c
:101780000002eb00040f780004108000844278000f
:101790002e029000054a78002e0290000402e80014
:1017a000240798001e0290000402e9001407980024
:1017b0001e029000e00f520003003a0006a2a800ab
:1017c0000682a8000300370006a2a9000682a8002e
:1017d000000000003410800070026200e00f520030
:1017e000fcff3a001e029000e00f5200d6ff3a00c4
:1017f0000002eb00040078000080fa000000060000
:101800000200fa00000f78001e02780004427800ff
:10181000614262000482fb00610262004522dd0039
:10182000063a8000f5fd2f00850263000502720074
:10183000043a88000080fa00000006000000fa0068
:1018400094e0a90011e1a90084e0a9000080fa0059
:10185000000006000000fa0021e2a9009560a9003e
:101860009580a9008560a9008580a9000080fa0004
:10187000000006000200fa00000f78008560a90051
:101880008580a9001e027800044278006742620049
:1018900067426200674262000482fb0067026200e6
:1018a0004c22dd0046058000f5ff2800850263001c
:1018b0000502720044058800040720001e02620031
:1018c0004422de0004427800674262000482fb008a
:1018d000670262005605800085ff2f0085026300c5
:1018e00005027200540588009e027800688262003a
:1018f0004322de0004427800614262000482fb0061
:10190000610262004b22dd00a6048000f57f2f00fb
:101910008502630005027200a40488000408200008
:101920001e0262004722de0004427800614262002b
:101930000482fb00610262004c22dd00a6048000ec
:10194000f5ff2e008502630005027200a4048800e2
:101950000080fa00000006000800fa001007980056
:1019600021079800320798003e0290004411880039
:101970001e029000041188002e02900014118800ad
:101980000200370034118000044f780014118000e9
:1019900061026200e00f5200faff3a008560a90080
:1019a0000080fa00000006000000fa001511800017
:1019b000041020000482620004f0a7000402ea0080
:1019c0000402e9004f22de0004427800044078005f
:1019d0000080fa00000006000200fa00000f780004
:1019e0000411800066026200e60f520003003a0014
:1019f0001e0278002411880003003700f40f200035
:101a00001e026200241188000080fa000000060017
:101a10000000fa0031e2a90097c0a90097e0a900f0
:101a200087c0a90087e0a9000080fa000000060036
:101a30000200fa00000f780087c0a90087e0a90023
:101a40001e0278000442780067426200674262002a
:101a5000674262000482fb00670262004822dd00e8
:101a600096058000f58f2f00850263000502720045
:101a700094058800040720001e0262004422de0054
:101a800004427800674262000482fb006702620041
:101a90004c22dd0096058000f5ff280085026300da
:101aa00005027200940588009e0278006882620038
:101ab0004322de0004427800614262000482fb009f
:101ac000610262004e22dd00b6048000f5ff2b00ab
:101ad0008502630005027200b40488000408200037
:101ae0001e0262004722de0004427800614262006a
:101af0000482fb004f22dd00b6048000f5ff2700c2
:101b00008502630005027200b40488000080fa00b8
:101b1000000006000800fa0010079800210798004e
:101b2000320798003e029000c41188001e02900007
:101b3000841188002e029000941188000200370062
:101b4000b4118000044f780094118000610262009b
:101b5000e00f5200faff3a0087c0a9000080fa00a7
:101b6000000006000000fa0095118000041020001b
:101b70000482620004f0a7000402ea000402e90003
:101b80004f22de0004427800044078000080fa0012
:101b9000000006000200fa00000f780084118000a7
:101ba00066026200e60f520003003a001e0278004f
:101bb000a411880003003700f40f20001e02620009
:101bc000a41188000080fa00000006000000fa005e
:101bd00051e2a9009e40a9009e60a9008e40a90084
:101be0008e60a9000080fa00000006000200fa00e2
:101bf000000f78008e40a9008e60a9001e027800b8
:101c000004427800674262006742620067426200f5
:101c10000482fb00670262004822dd006606800045
:101c2000f58f2f00850263000502720064068800ac
:101c3000040720001e0262004422de0004427800f5
:101c4000674262000482fb00670262004c22dd00f2
:101c500066068000f5ff2800850263000502720019
:101c6000640688009e027800688262004322de00db
:101c700004427800614262000482fb00610262005b
:101c80004222dd00f6048000b5ff2f0085026300cc
:101c900005027200f4048800040820001e0262009d
:101ca0004722de0004427800614262000482fb00a9
:101cb000610262004322dd00f604800075ff2f0000
:101cc0008502630005027200f40488000080fa00b7
:101cd000000006000800fa0010079800210798008d
:101ce000320798003e029000c41288001e02900045
:101cf000841288002e02900094128800020037009f
:101d0000b4128000044f78009412800061026200d7
:101d1000e00f5200faff3a008e40a9000080fa005e
:101d2000000006000000fa00951280000410200058
:101d30000482620004f0a7000402ea000402e90041
:101d40004f22de0004427800044078000080fa0050
:101d5000000006000200fa00000f780084128000e4
:101d600066026200e60f520003003a001e0278008d
:101d7000a412880003003700f40f20001e02620046
:101d8000a41288000080fa00000006000000fa009b
:101d9000b1e2a9009f00a9009f20a9008f00a9001f
:101da0008f20a9000080fa00000006000200fa005f
:101db000000f78008f00a9008f20a9001e02780074
:101dc0000442780067426200674262006742620034
:101dd0000482fb00670262008606800085ff2f00f8
:101de0008502630005027200840688000407200053
:101df0001e0262004422de00044278006742620054
:101e00000482fb00670262004422dd008606800037
:101e1000f5f82f0085026300050272008406880031
:101e20009e027800688262004322de00044278004d
:101e3000614262000482fb00610262004822dd0010
:101e4000f6048000f5ef2f008502630005027200a2
:101e5000f4048800040820001e0262004722de000d
:101e600004427800614262000482fb006102620069
:101e70004922dd00f6048000f5df2f0085026300b3
:101e800005027200f40488000080fa0000000600d9
:101e90000800fa0010079800210798003207980000
:101ea0003e029000c41588001e0290008415880030
:101eb0002e0290009415880002003700b4158000af
:101ec000044f78009415800061026200e00f520018
:101ed000faff3a008f00a9000080fa000000060017
:101ee0000000fa00951580000410200004826200b2
:101ef00004f0a7000402ea000402e9004f22de0019
:101f000004427800044078000080fa0000000600d7
:101f10000200fa00000f780084158000660262005b
:101f2000e60f520003003a001e027800a415880054
:101f300003003700f40f20001e026200a415880081
:101f40000080fa00000006000000fa004410800043
:101f50000402d10061426200044078000080fa006f
:101f6000000006000b00370030427800e04f5200be
:101f7000030032000201e900b14f520005003200b7
:101f80000480fb00954278008582fb00050050002c
:101f90000000060081027800e00f5100f2ff3a00d5
:101fa00002007800000006000c00fa00a0bf9f00ad
:101fb000c0bf9f0022000700140c2000b0bf9f008c
:101fc000f0bf9f00d4bf9f0074815700efb097000f
:101fd0006c805700690007000080fa0000000600ce
:101fe000889fbe000004be00050037000000fb0013
:101ff0008900780017020700e10f4000040032005a
:1020000038407800e04f5000f8ff3a000000eb0045
:102010004f04be0000000600214c2100881f7800fc
:10202000efff0700214c210000047800a0002000f1
:1020300008020700080078004f047800000006003e
:10204000000278008042eb00b4cf1200fdff3a009e
:102050000080ea0000004200000006000c00fa00c8
:10206000889fbe00f4ff270000047800d4bf9f00c3
:102070008004eb0088bf9f0099bf9f00a8bf9f000e
:10208000240c200078815700b4bf9f00cfb0970088
:1020900070805700330207000fba9700094a780092
:1020a0000fba9700080052004f04be000080fa00eb
:1020b00000000600881f7800d0a68000a505070054
:1020c00000047800080078007cf90700e00f500059
:1020d000f9ff3a00e10f440003003200d1a680006e
:1020e00008007800ce0507004f04780000000600c5
:1020f000889fbe00000478008a1f78008144780021
:102100000205780004fd2f0008024200e90f52008a
:1021100002003e00040478000f0037000800780039
:102120006ef90700e00f500005003200e00f550087
:10213000030032000800780059f907000004780015
:10214000080078006bf9070000c2eb00e00f5000b8
:10215000060032007805b1008984fb0000c2eb0064
:10216000890f540001003d00084278004f057800b7
:10217000044078004f04be00000006000002eb009f
:10218000af04b000d0a68800889fbe0084447800c9
:102190008a9fbe00810578008c9fbe0002057800f2
:1021a0008e1f7800e4b79f009f0137000886fb0070
:1021b0008b05e8000c00780040f90700e00f5000a4
:1021c00002003200bbff07009701370054c2b30082
:1021d000844f540087013a000044780025c0b300c2
:1021e00090f79f00884678000b007800054678003d
:1021f000040037004cc0b300010037002cc0b3000e
:102200000b0078003b42780075c6b300854f520042
:1022100020003e0085c2e900854f520035003100a4
:10222000f9c25200854f52009b0032000e003e0062
:10223000e7c25200854f52002e00320006003e00d9
:10224000e04f52007a003200fbc25200854f52002c
:10225000d8003a002500370075c4b300854f5200fe
:10226000d4003a002300370035c6b300854f520032
:10227000bc003200e2003e00ebc25200854f52002b
:10228000cc003a009df79f008cf79f0015002000be
:1022900088003700f5c6b300854f5200dd003200dc
:1022a00008003e00e6c25200854f5200d4003200c2
:1022b000d2ff3900e3c24200854f5200bd003a0010
:1022c0007500370055c7b300854f5200cc0032006f
:1022d000e3c24200854f520073003200e5c2520053
:1022e000854f5200b3003a00750037008d46e80074
:1022f000c3ff37009df79f008cf79f006dff07001d
:10230000e04f540001003a00b8c3b300d0a68000eb
:1023100010050700d4022000840f500007003a0087
:10232000a06f9f000844e900d0a6800009050700bf
:10233000befa2f000f07470002003700aefa2f0049
:102340000f0747000046eb00ed02200007003700b2
:10235000005f78008d0f500001003a000c46e80045
:102360000844e900d0a68000fa040700e04f5400ba
:102370000400320004fd2f0000024200e90f520069
:10238000f3ff3600e04f560002003a008d0f500078
:10239000efff3200e04f54001c00320054062000d2
:1023a000840f50000300320054042000840f5000ba
:1023b00016003a00005f78000844e900d0a68000cb
:1023c000e4040700e04f54000a003200d402200069
:1023d000840f5000030032000482e900840f500093
:1023e00004003a000844e900005f7800d0a68000ad
:1023f000d8040700e04f54000400320004fd2f0011
:1024000000024200e90f5200f6ff3600004feb00d9
:10241000e10f400002003200d1a680000005070055
:10242000a4fa2f000f024200840f570002003a0066
:1024300009447800940037009ff29700e0cf5200e3
:10244000f9003a008944e8000a85e9000ff2970094
:10245000e24f5200090032001a0478008000eb00bd
:10246000a0fa2f000f0040000306070068fa0700db
:10247000009cbe000294be00eb0037001a047800f6
:102480008000eb00a0fa2f000f00400003050700ba
:10249000008cbe00e4003700e24f560055ff3200ca
:1024a0008cc0b30056ff37009df79f008cf79f004c
:1024b0008002eb00e5b79f0004c1b3005300370072
:1024c0009df79f00fbfe07009ff29700e0cf5200b0
:1024d00001003a004a077800d0a680009d0407005a
:1024e00000067800e10f460011003a000944780028
:1024f0000c007800c90037001b02fb00840f560057
:1025000002003a008b05e800100037001ff2970028
:10251000e04f520001003a000c5f78000844e900e7
:102520000a003200d0a680008a0407000006780066
:102530000c02e800e10f5200040036000c007800a5
:102540005ef80700e00f5000ebff32009ff29700ab
:10255000e0cf5200b4003a008944e800054f78000b
:10256000b10037009df79f000d427800e04f520008
:1025700002003a008944e8004a077800d0a68000ab
:1025800074040700e10f400002003a00094478009b
:10259000a20037009ff29700e0cf520001003a00fe
:1025a000005f78000844e9004240a900f3ff3c00c6
:1025b0009d0037000484fb0004fd2f000802420048
:1025c000e90f520009003e00ae0507000b0278003b
:1025d0000044780084057800b402fb000503b100d4
:1025e000e98f5200fbff360005ff3700d0a68000c0
:1025f00058040700800f540082003a008a00370018
:102600009df79f008cf79f00a4c0b300b4ef9f001c
:102610000400370085c0b3009df79f008cf79f0032
:10262000b5ef9f00a3fe0700d0a680004904070075
:102630000042eb00f0b79f00a4ef9f0080027800fb
:10264000d4022000848f520005003a00d0a68000fa
:1026500040040700f0b79f0014c0b300a4ef9f0030
:102660006fb19700bfe897007fb09700a0fe07000a
:10267000e14f40000c003a0009447800d1a68000e8
:102680007fb0970066040700e04f54006a003a00ec
:10269000d4a6800034009000700060006700320013
:1026a0000080eb006500370004032000ffb29700b4
:1026b000848f520015003a00d0a680002504070040
:1026c00084072000840f500004003a006fb2970086
:1026d000e00f5200070032000a0037008405200096
:1026e000840f500007003a00efb29700e08f5200cd
:1026f00004003200d0a6800016040700f0b79f0047
:1027000002003700d1a6800045040700bfea970009
:102710000582fb0005002000b4b79f00c5b79f00ed
:102720006066b8003fb19700cfb197000c00be00c3
:102730000844e900b0f907006fb197000006be0039
:10274000bfe897007fb0970069fe07000080fb009c
:10275000010020000006460081864e00e04f540034
:1027600008003200d0a68000fa0307006fb197007e
:10277000f0b79f00bfe897005dfe0700e14f400003
:10278000e8ff3a006fb19700bfe897007fb097006d
:1027900057fe0700e14f400003003a00d1a6800039
:1027a0007fb097001e0407002fea9700e04f520009
:1027b0000200320060061600e0861e009ff29700bd
:1027c000e0cf520018003a008944e8000a85e90089
:1027d0000ff29700e44f520003003a001a0278000b
:1027e0000c8abe00100037001a0278000c0a78002c
:1027f0000d003700d0a68000d6030700800f5600da
:102800000900320009447800e10f40000300320063
:10281000d1a680000204070007003700e04f5400f3
:1028200005003a00050037001b447800e04f5400d3
:102830005efe3a00094478000880fb004f077800ec
:102840004f06be004f05be004f04be00af04b100ee
:1028500000000600889fbe00010478008084eb0021
:1028600038029000e20262003b003200040378006c
:10287000980290000620b20002003a00e08f520059
:1028800035003a000490a0008004780034049800d9
:10289000f90fb200e08f520002003a00a802900047
:1028a000050c7800ea8f540005003a000408b200d5
:1028b00003003a0088007800d0002000e5ff070000
:1028c00018029000d8029000850f52000b003200d1
:1028d0000402e80015c0b300140498001802780040
:1028e000094a7800040ce800e44d2100054a78000c
:1028f000ea8f540018003a000500370009407800bc
:1029000088007800fe040700800478001200370079
:10291000380290000410b2000f003200180190003d
:10292000a8009000480090007ef707001802900071
:10293000840f500004003200380290000403b300fa
:10294000340498008084eb000002eb00140498002b
:1029500028029000040c7800090078004f04be00a3
:1029600000000600ef03b000889fbe008a9fbe00f3
:102970008c9fbe00800678008e1f78000007eb0059
:10298000d1af9f00a2b79f0066033700dfa8970072
:1029900054c2b3008100e800d1af9f00844f5000c3
:1029a00006003a00010278000006eb0001c3b30004
:1029b00000c2b300b7c2b3000e0037003d02900062
:1029c0000404b200040032001d027800004a7800be
:1029d000840ee800050037000000fb008d00780041
:1029e0009cff0700e10f40004e0332000e07e80095
:1029f0004c03370084027800d2c2b300344378001d
:102a0000824f53000900320005003c00804f530004
:102a100008003200874f53000c003a0007003700cf
:102a2000814f530009003a00060037000c30a00027
:102a3000f0ff37000c00a000eeff37000c10a000e4
:102a4000ecff37000c20a000eaff370062026600ae
:102a5000010032000c00a100680266000100320093
:102a60000c20a1000602fb000403b100e90f520094
:102a70000c003e00050378000002eb00b603fb00eb
:102a80006a22b9000703b10086027800048243007d
:102a90009603fb000703b100e98f5300f7ff3600f0
:102aa000080037000002eb00a7c2b300874f5300b5
:102ab00004003a00afb197008502e80043027800b5
:102ac000a3b79f000003eb0096b79f00e6c2b300d8
:102ad000954f13000c003a000ce0a0006443530033
:102ae000d54f130003003200050378000000eb000f
:102af00009003700afb397008502e800470478006b
:102b0000a7b79f0098b79f0005037800090037001a
:102b10006a00b9000080430086027800b603fb001b
:102b20000703b100e98f5300f9ff360090b79f000b
:102b3000f5ff3700b6427800cac6b300d6af9f0093
:102b40008acf5200250032000f003c0036c6b30089
:102b500086cf52009e00320004003c00e0cf5200bd
:102b6000f50232006b4353000f00370046c6b30036
:102b700086cf5200170032006543430086cf5200d3
:102b8000b2003a001300370036c7b30086cf5200b8
:102b90001f00320007003c006443530086cf520000
:102ba000140032000643e80086cf5200a7003a0026
:102bb0001300370056c7b30086cf5200aa00320078
:102bc0006343430086cf5200a0003a00e5779f00a0
:102bd0000d003700e5779f00a5003700f003660081
:102be0000501200001003200050028000c8672005b
:102bf000d0ff3700e5779f000c60a0009c003700f5
:102c0000e5779f000c50a0000c70a00098003700e2
:102c1000afb59700e5779f00cb027800abb79f0078
:102c2000b5b79f00e08f520002003a00e14a210050
:102c3000b1b79f003fb397008002eb00010037005f
:102c40008502e800e6c37a00e0cf5300fcff3a00bb
:102c5000c5b79f001fb19700e00f5100050032007b
:102c6000cfb19700830f510002003100820278003b
:102c7000c5b79f00cfb297000004eb00850f52004c
:102c800001003600050452006806660009c2b30060
:102c90000f003200290037003d0290000404b2000a
:102ca000040032001d027800094a7800840ee80012
:102cb000050037008d00780000022000e5fe0700c7
:102cc000e10f4000010032000e07e8000804e900af
:102cd000e00f5400f0ff3a000084eb0017003700cb
:102ce000bd0290000504b20009003200880278009d
:102cf0009d03780035437800864b78000504780002
:102d0000870ee800e04f53000a003a001100370038
:102d1000880278008d0078003500fb0084bf9f009a
:102d200005047800cbfe07000fba9700e10f4000c2
:102d3000080032000e07e800060037000c02780099
:102d4000080678003fb49700cfb497005fb59700ae
:102d5000efb59700890278008504e900e08f520002
:102d6000dfff3a00b8b79f00c9b79f00dab79f00ee
:102d7000ebb79f000c04780009c2b300040678008a
:102d8000e00f56000f003a00660237003d02900047
:102d90000404b200040032001d027800094a7800e1
:102da000840ee800050037008d0078000002200046
:102db000a8fe0700e10f4000010032000e07e80006
:102dc0000804e900e00f5400f0ff3a005502370014
:102dd000afb097007003660041047800a1b79f0070
:102de000cfc4de00090578008a0578000800be001f
:102df0000a01be004800de00c80add000080720043
:102e0000e0779f00e00f530009003200e04f5000d0
:102e100007003200e14f400005003200260020008c
:102e2000f0779f00887f9f00c6b79f0003003700a0
:102e300017002000c7b79f00f8779f0078fb2f008e
:102e400008844700b8b79f0082ff370069fb2f0056
:102e50001a00200089844700e5779f00b9b79f00da
:102e6000cab79f007bff3700e5779f000c0cb300cb
:102e70008c027800050cb2003b003a00e00f5600cf
:102e800005003d00afb297004501be004500be0001
:102e9000a5b79f000f003700f00266001200320055
:102ea0002fb497004803be00f69f9f0087a79f009e
:102eb000a8b79f0098029000cfaade0095a79f00b8
:102ec000a5a79f007f9897008fa097001fa197004c
:102ed000afa19700b0b79f00c1b79f00d2b79f00c6
:102ee000e3b79f000b003700afb09700c102780036
:102ef00005047800cfc4de00090578008a05780053
:102f0000a1b79f00b8b79f00c9b79f00dab79f006d
:102f1000ebb79f003fb09700cfb097005fb197002d
:102f2000efb19700e00f5000e08f5800e00f59001c
:102f3000e08f590032003d006000b8006011b80019
:102f40003fb49700cfb497005fb59700efb59700f7
:102f50003c00b30008045000898458000a05590059
:102f60008b85590022003700e00f560005003d0018
:102f7000afb297004501be004500be00a5b79f0057
:102f80000f003700f0026600120032002fb49700e5
:102f90008004eb004803be000005eb0096af9f00e5
:102fa000a7af9f00b9af9f00caaf9f001fa89700af
:102fb000afa897003fa99700cfa99700a8b79f0097
:102fc000b0b79f00c1b79f00d2b79f00e3b79f0083
:102fd0000b003700afb09700c1027800a1b79f0087
:102fe00005047800090020000a0020000b002000e2
:102ff000b8b79f00c9b79f00dab79f00ebb79f0033
:103000009fb49700e08f54000d003a001a00200092
:103010003fb09700cfb097005fb19700efb1970036
:103020009ab79f00e00f5000e08f5800e00f590062
:10303000e08f5900020032008000eb0091b79f0042
:103040000c01780005042000020cb20082b79f003a
:10305000850f51003400320003003c00e00f5100a6
:103060000800320048003700050820008fb19700a3
:10307000858f510014003200050c2000858f51000f
:1030800041003a00463f210015c0b3003600be00a3
:103090003601be003fb49700cfb497005fb59700ec
:1030a000efb597000040e10001c8e10002d0e10067
:1030b00003d8e100330039008542e800f4cf520024
:1030c000f2ff3a002f00370015c0b30000012000c6
:1030d000010020006011b8003fb49700cfb4970002
:1030e0005fb59700efb597000040e10001c8e1002f
:1030f00002d0e10003d8e10022003900490020009d
:103100000000d0008180d2000281d2008381d200f1
:103110008904e900faff3a008542e800f0cf520046
:10312000edff3a001700370015c0b3008000200003
:10313000010020006011b8003fb49700cfb49700a1
:103140005fb59700efb597000040e10001c8e100ce
:1031500002d0e10003d8e1000a0039003900200064
:103160000000d0008180d2000281d2008381d20091
:103170008904e900faff3a008542e800f5cf5200e1
:10318000edff3a00e5779f006f7597009fb59700b8
:103190008a02fb008b8f520002003d00eb779f00fc
:1031a000040037001fb09700850f500001003d005c
:1031b00095b79f00e00f520003003200e302660063
:1031c000010032000402e9000500240085026600c7
:1031d000060032009fb09700810f520002003400b9
:1031e00001025200010037000002eb006f719700ee
:1031f0008001eb008202fb00f3af9f00850f5200bd
:103200000200340085025200f5af9f0064026600a0
:103210003b003200e202660061026600e08f52006d
:1032200011003200bd0290000504b2000800320017
:103230009d027800b6c2b300e00f520001003200d8
:1032400006c3e800864a7800850ee80015003700be
:10325000b0022000e00f5200010032000080e800c0
:103260008d0078000c003700e00f52000e00320095
:103270003d0290000404b200050032001d027800f7
:1032800005c2b300054a7800840ee8000500370047
:103290008d007800000220006efd0700e10f400065
:1032a000010032000e07e8007faa9700e00f5200ed
:1032b0004f00320008c3b300840478003d02900040
:1032c0000404b200040032001d027800084a7800ad
:1032d000840ee800050037008d0078000003200010
:1032e0005cfd0700e10f4000010032000e07e8001e
:1032f0008904e900f1ff3a00f9af9f003c00370074
:10330000ffaa9700e08f52001400320068026600a6
:1033100012003a0008c2b300850478003d02900014
:103320000404b200040032001d027800084a78004c
:10333000840ee800050037008d00780000022000b0
:1033400044fd0700e10f4000010032000e07e800d5
:103350008904e900f1ff3a00f9af9f00e20266003c
:1033600061026600e08f520011003200bd02900041
:103370000504b200080032009d027800b6c2b30016
:10338000e00f52000100320006c3e800864a7800d0
:10339000850ee80015003700b0022000e00f520053
:1033a000010032000080e8008d0078000c0037003a
:1033b000e00f52000e0032003d0290000404b20003
:1033c000050032001d02780005c2b300054a7800ee
:1033d000840ee800050037008d0078000002200010
:1033e0001cfd0700e10f4000010032000e07e8005d
:1033f0001fb39700c53e21000602e900f0046600f5
:10340000c223dd000c057800c7a79f000a02b200a6
:103410006323b900e99f9f00060478004322dd0082
:10342000b8a79f0085024200da9f9f00e5af9f008a
:10343000a30037009fb597000fb097008b05e900f8
:10344000010420009bb79f00810f500073003200e1
:1034500003003c00e00f5000080032007e003700ff
:10346000040820000fb19700840f5100560032006d
:10347000040c2000840f510077003a00e00f560042
:103480001f003d00efa997003304be002305be00d6
:103490003fb09700cfb097005fb19700efb19700b2
:1034a0000802be000a03be009df507000802be0028
:1034b0000a03be00e0779f000000fb00cf80de0023
:1034c000010178008201780022f607003fb29700e0
:1034d000cfb297005fb39700efb39700000252009e
:1034e00081825a0002035b0083835b00b4b79f00b4
:1034f000c5b79f00d6b79f00e7b79f002e003700e3
:10350000ef9a9700e08f5200220032006fab9700d5
:103510003fb29700cfb297003604be002605be002a
:103520000400be000801be0084bf9f00f5b79f00e5
:103530000005eb00f0f407000801be00e0779f00f3
:103540000000fb00cf80de002bf607000fba9700cb
:10355000ffb297008aaf9f000004520081845a0096
:10356000d8a79f00e9a79f008004eb00f9a79f0060
:103570005fa09700efa097007fa197008fa9970009
:10358000b0b79f00c1b79f00d2b79f00e3b79f00bd
:1035900009003700efa897003fb1970011027800ab
:1035a000110009000481d800a400200011000900c6
:1035b0000480d800e1779f00ef7197000343b000cb
:1035c000e3779f0024003700d4492100df9a970059
:1035d000e08f520001003200c44821003fb0970044
:1035e000cfb097005fb19700efb197004fa397005e
:1035f0000603e900050033008301d1000281d300f6
:103600008180d3000080d300f9ff37006f00600095
:1036100064407800e0779f000f0037003fb29700ca
:10362000cfb297005fb39700efb397003fa4970026
:103630000804e900050033008703d1000683d300a6
:103640008582d3000482d300f9ff3700674262000d
:103650000443b000e4779f003d0290000404b200f0
:10366000070032009d0278006f729700844a78004c
:10367000850ee800e04f520007003a0007003700cf
:10368000ef7497008d0078000900fb0071fc0700c3
:10369000e10f4000010032000e07e8004fa597003f
:1036a000bfa597006fa8970064055500e3855500f6
:1036b00068005000caa79f00bba79f00e0af9f0013
:1036c0009fb09700e08f50005aff3a0068066600ee
:1036d000140032007fa99700e00f51001100340060
:1036e00008c2b300820478003d0290000404b200d6
:1036f000040032001d027800084a7800840ee800b9
:10370000050037008d0078000002200051fc070002
:10371000e10f4000010032000e07e8008904e900d3
:10372000f1ff3a00dfa9970013407800e0779f008f
:10373000e04f500095fc3a000e0078004f077800eb
:103740004f06be004f05be004f04be00ef03b100a0
:1037500000000600881f78000004780038029000fe
:10376000f1026200e18f520006003a008402780004
:103770000520b2000800320098029000e08f52004d
:1037800005003200380290000080eb000440a000e9
:1037900034049800200037000490a10034049800fd
:1037a00018029000e00f5200070034000402e90004
:1037b000140498001802780094427800040ce80081
:1037c0000580fb0005003700380290000404b200b9
:1037d000ecff3a00080078008b01070038029000e7
:1037e0000408b2000c003a00fa0f500008003a003a
:1037f00028029000e00f5200e2ff32001802900011
:10380000180ce9000402e80014049800ddff3700fa
:10381000ed0f5000e2ff32004f0478000000060078
:10382000e10f40001c003200310290001420b20071
:10383000e10f520015003a0021039000e00f530001
:103840001200320011029000d1029000850f520048
:103850001000320091027800868f520002003a0078
:103860008508e800020037000402e8009400980090
:103870009102e90031029000850878000404b2004a
:1038800005003a00804a7800000006000080eb0046
:10389000000006000080eb0000000600ea874700f9
:1038a000889fbe008a9fbe00810578008c9fbe0065
:1038b0008e1f7800e08f550001003200800d7800e7
:1038c000000578008a047800090578003a06fb00b4
:1038d0000c00780079f30700e00f5000f9ff3a0080
:1038e000d4022000840f560003003a008a047800b6
:1038f00018c0b3000500370000447800b40220006f
:10390000840f560001003a008a0478008006eb001c
:103910006000b8000d0578000ecdb300e4c2b3001e
:10392000010037008904e800890278007003640010
:1039300004003a00994f120002003a000844a00027
:10394000f8ff3700194678000c03fb000603b100ae
:10395000e90f530017003e000814a0008802fb0086
:10396000e98f56000f003200f08262000100320041
:103970000a05e900e4b79f00a20020000300200030
:103980008d06e8001cf507000e4346006fb2970055
:103990000683fb00070020000000430081804b00ed
:1039a000e0ff3700f0826200deff3a000a05e8001f
:1039b000dcff370054c6b300844f560004003200c9
:1039c0008006eb0054c4b300844f56002e003a002a
:1039d00059427800d5c2b300854f520002003a0028
:1039e0000834a00003003700b5c2b300854f520071
:1039f00001003a008904e80007c3b3008902780097
:103a00008504780004c3b30039437800874f53001e
:103a1000faff32008603fb008006eb000703b100cb
:103a2000e98f530015003e00890278008446530058
:103a3000154378008d86fb008603fb000703b10069
:103a4000e98f53000d003e006a69b90084465300b7
:103a5000554378008d86fb008603fb008286460076
:103a60000703b100e98f530004003e006a69b90002
:103a7000844653008d86fb008286460068026400ff
:103a8000010032008d06ea00e08f5500030032008d
:103a90006202640001003200850d7800fbf407002b
:103aa0006011b8000002be000003be00e4b79f0032
:103ab000d5b79f00f4b79f0087bf9f00f6f40700bb
:103ac0006fb2970000017800dfb297006000b80085
:103ad0007fb397008fbb9700e00f5100600032006a
:103ae0000a85460032f82f00820f550003003d0082
:103af0002402200024a78800590037000008200075
:103b0000800f550007003400240220006104640087
:103b100024a788004d0032000000200001f82f008b
:103b20004f003700e00f55001f003d000a05ea0076
:103b3000060037000400be00922f2000530125002c
:103b40006a055500d6f407000002be00e90f5500d3
:103b5000f8ff3c00060037000400be000200200011
:103b6000031224000a05e900cdf407000002be009c
:103b7000e00f5500f8ff3a000403be0002002000e9
:103b80000308200087bf9f000400be00f4b79f0019
:103b9000c1f407007fb397008fbb9700e00f500080
:103ba00025003d001f003700e00f550007003a00d8
:103bb000210037000400be00922f20005301250091
:103bc0006a055500f8f407000002be00e94f5500f1
:103bd000f8ff3e00060037000400be00020020008f
:103be000031224000a05e900eff407000002be00fa
:103bf000e00f5500f8ff3a000403be00f2ff2f006b
:103c0000f3f7270087bf9f000400be00f4b79f00b2
:103c100019f507007fb397008fbb9700e00f5000a6
:103c200005003400610464000b0032000000200035
:103c3000010828000a003700610464000100320016
:103c400007f0a2000600be000500370000002000bb
:103c500001f82700020037000000200001082000c2
:103c60004f0778004f06be004f05be004f04be0050
:103c7000af00b1000000060008ff37008000eb0035
:103c800006ff370006c2b300000278000400780087
:103c9000b042780086cf5200fbff3200e9cf5200dd
:103ca000f9ff3200d6c2b30086cf520003003a00bb
:103cb0000002780016c0b300050037000043eb0097
:103cc000b7c2b30087cf520001003a00000278006b
:103cd0000000eb00020037006a00b90000804200db
:103ce000b402fb000503b100e98f5200faff360071
:103cf000e04f5300010032000000ea00000006001f
:103d00000200fa00889fbe0001047800a0ff9f0017
:103d100038029000840278000504b20002003200ec
:103d20000000fb0035003700e202620005003a00a7
:103d30000403b30015049800340498000080eb00dd
:103d40002e003700d8049000e08f540006003a009f
:103d500012002000e68057004800900071f2070032
:103d60001904980023003700a8029000e08f520049
:103d700008003a00254e21000430a00025049800d8
:103d8000050c7800340498002500200055049800a4
:103d90001504980018019000a800900048009000b9
:103da00060f20700280290008082eb001504980062
:103db000affa9700054a7800040ce8002ffa970044
:103dc000ea4f52000b003a00380290000410b20093
:103dd0000800320018019000a800900048009000f0
:103de00050f207000002eb00a802900014049800b3
:103df000050c78002ffa97000400fb004f04be006a
:103e00000080fa00000006000200fa00889fbe0051
:103e1000000478000002eb008a9fbe0014049800a2
:103e20000080eb0038029000610262004000320026
:103e3000e44d21008042eb0094cf12000f003200cd
:103e4000ab4d21002a102000c9fd2f008b844400b7
:103e5000390290002410b2008a0f520002003a008a
:103e60000900780036000700ec8444008b8f540072
:103e7000f7ff3a00e44d2100004aeb0058019000a2
:103e8000e00f51000e003a0012049800ea8057003b
:103e9000120020004800900054f20700e10f50008b
:103ea00003003a006ff297000480fb002000370007
:103eb000380290000440a00034049800130037003a
:103ec000a80090004800900048f2070010049800f5
:103ed000e00f500003003200e10f40000d003a00f7
:103ee00003003700380290000440a00002003700b1
:103ef000380290000403b30034049800a802900034
:103f00000002eb00050c7800140498000080eb0020
:103f100007003700280290000000e900040c780038
:103f20001004980094427800040ce8000580fb001f
:103f30004f05be004f04be000080fa0000000600de
:103f4000881f780000047800380090000002780094
:103f50001420b200e10f520005003a000002eb000d
:103f60001404980028029000040c7800190037000f
:103f700080027800242020002520b2000000eb0001
:103f8000848f520016003a00a8009000808f5000e5
:103f90001300320018019000800f51001000320011
:103fa00048009000dff1070018029000840f5000d5
:103fb00003003200380290000403b3003404980078
:103fc000380090000002eb001404980028029000d2
:103fd000040c78000002b200010032000080eb0007
:083fe0004f0478000000060008
:020000040000fa
:103fe800636d0000645f000065780000706c00007d
:103ff800616900006e3a000020090000436f00006c
:104008006d6d0000616e0000647300003a200000ce
:104018007b6800007c3f00002c200000662c00001c
:10402800207200002c200000762c00002074000074
:104038007c7900007c7500007c6900007c6f0000c2
:104048007c7000002c200000302d0000397c00001e
:10405800787d0000000900000909000009680000d7
:104068007c3f00003a20000074680000697300007b
:1040780020680000656c0000702000007363000079
:1040880072650000656e00002e0d0000000900003a
:1040980009090000096600003a20000020200000fd
:1040a800666900006e6900007368000020740000f3
:1040b80065730000742e00000d000000090900005f
:1040c80009090000723a0000202000002072000058
:1040d80065730000746100007274000020610000c4
:1040e800707000006c690000636100007469000072
:1040f8006f6e00002e0d0000000900000909000085
:10410800097600003a2000002020000064690000c1
:10411800737000006c61000079200000666900007f
:10412800726d000077610000726500002076000063
:1041380065720000736900006f6e00002e0d0000ac
:104148000009000009090000097400003a20000075
:10415800202000006469000073610000626c0000a8
:1041680065200000616c00006c2000004f450000d5
:104178004d36000031350000204300004f4d00004f
:10418800312000006c6f000067670000696e000056
:10419800672e00000d000000090900000909000051
:1041a800793a000020200000206500006e610000c0
:1041b800626c0000652000004f4500004d3600008d
:1041c80031350000204300004f4d00003120000031
:1041d80047470000412000006c6f0000676700003f
:1041e800696e0000672e00000d000000090900003c
:1041f80009090000753a0000202000002065000031
:104208006e610000626c0000652000004f450000f0
:104218004d36000031350000204300004f4d0000ae
:104228003120000047530000412000006c6f00005f
:1042380067670000696e0000672e00000d0000002f
:104248000909000009090000693a0000202000005f
:10425800206500006e610000626c000065200000af
:104268004f4500004d360000313500002043000066
:104278004f4d000031200000475300005620000039
:104288006c6f000067670000696e0000672e000011
:104298000d00000009090000090900006f3a00003c
:1042a80020200000206500006e610000626c0000a4
:1042b800652000004f4500004d36000031350000f4
:1042c800204300004f4d000031200000524d0000f7
:1042d800432000006c6f000067670000696e0000f3
:1042e800672e00000d000000090900000909000000
:1042f8006c3a000020200000206500006e6100007c
:10430800626c0000652000004f4500004d3600003b
:1043180031350000204300004f4d000031200000df
:1043280056540000472000006c6f000067670000cb
:10433800696e0000672e00000d00000009090000ea
:1043480009090000303a0000202000002073000016
:10435800656c000065630000742000005375000060
:10436800702000004d43000055200000434c000021
:104378004b2000004f7500007420000064690000a5
:10438800762000003d200000325e0000302e000044
:104398000d0000000909000009090000313a000079
:1043a8002020000020730000656c00006563000099
:1043b8007420000053750000702000004d43000079
:1043c80055200000434c00004b2000004f750000b2
:1043d8007420000064690000762000003d20000081
:1043e800325e0000312e00000d00000009090000b7
:1043f80009090000323a0000202000002073000064
:10440800656c0000656300007420000053750000af
:10441800702000004d43000055200000434c000070
:104428004b2000004f7500007420000064690000f4
:10443800762000003d200000325e0000322e000091
:104448000d0000000909000009090000333a0000c6
:104458002020000020730000656c000065630000e8
:104468007420000053750000702000004d430000c8
:1044780055200000434c00004b2000004f75000001
:104488007420000064690000762000003d200000d0
:10449800325e0000332e00000d0000000909000004
:1044a80009090000343a00002020000020730000b1
:1044b800656c0000656300007420000053750000ff
:1044c800702000004d43000055200000434c0000c0
:1044d8004b2000004f750000742000006469000044
:1044e800762000003d200000325e0000342e0000df
:1044f8000d0000000909000009090000353a000014
:104508002020000020730000656c00006563000037
:104518007420000053750000702000004d43000017
:1045280055200000434c00004b2000004f75000050
:104538007420000064690000762000003d2000001f
:10454800325e0000352e00000d0000000909000051
:1045580009090000363a00002020000020730000fe
:10456800656c00006563000074200000537500004e
:10457800702000004d43000055200000434c00000f
:104588004b2000004f750000742000006469000093
:10459800762000003d200000325e0000362e00002c
:1045a8000d0000000909000009090000373a000061
:1045b8002020000020730000656c00006563000087
:1045c8007420000053750000702000004d43000067
:1045d80055200000434c00004b2000004f750000a0
:1045e8007420000064690000762000003d2000006f
:1045f800325e0000372e00000d000000090900009f
:1046080009090000383a000020200000207300004b
:10461800656c00006563000074200000537500009d
:10462800702000004d43000055200000434c00005e
:104638004b2000004f7500007420000064690000e2
:10464800762000003d200000325e0000382e000079
:104658000d0000000909000009090000393a0000ae
:104668002020000020730000656c000065630000d6
:104678007420000053750000702000004d430000b6
:1046880055200000434c00004b2000004f750000ef
:104698007420000064690000762000003d200000be
:1046a800325e0000392e00000d00000009090000ec
:1046b80009090000783a000020200000206400006a
:1046c80069730000616200006c65000020530000ff
:1046d80075700000204d0000435500002043000085
:1046e8004c4b0000204f0000757400002e0d000098
:1046f800000d000000740000617300006b5f000093
:10470800636d0000645f0000646f00003a200000e1
:10471800095300007461000072740000696e0000a3
:10472800672e000000740000617300006b5f0000da
:10473800636d0000645f0000646f00003a200000b1
:10474800097200003a2000005265000073650000fd
:1047580074200000287600006961000020570000de
:104768004454000029200000696e00002031000038
:10477800207300002e00000074610000736b0000bd
:104788005f6300006d6400005f6400006f3a000022
:1047980020090000763a000020760000312e000043
:1047a800302e00003520000062750000696c0000a2
:1047b800742000006f6e0000204e00006f7600002d
:1047c8002020000033200000323000003135000086
:1047d8002061000074200000303800003a340000e6
:1047e800333a0000353100000074000061730000a6
:1047f8006b5f0000636d0000645f0000646f000081
:104808003a200000095500006e6b00006e6f000032
:10481800776e0000206300006f6d00006d6100007e
:104828006e6400003a20000027250000632700007e
:10483800202800003078000025580000292e0000ac
:104848000000000074610000736b00005f730000db
:10485800757000006d630000755f000071610000f5
:104868003a200000095600006572000069660000e1
:10487800793a00002053000074610000747500004c
:10488800732000004c45000044200000284400002c
:104898003229000020690000732000004f46000004
:1048a800462e000000740000617300006b5f00007a
:1048b80073750000706d0000637500005f71000083
:1048c800613a000020090000566500007269000086
:1048d800667900003a2000005374000061740000fb
:1048e80075730000204c000045440000202800009b
:1048f800443200002920000069730000204f0000a6
:104908004e2e000000740000617300006b5f000011
:1049180073750000706d0000637500005f71000022
:10492800613a000020090000566500007269000025
:10493800667900003a20000053740000617400009a
:1049480075730000204c000045440000202800003a
:10495800443200002920000069730000206600002e
:104968006c61000073680000696e0000672e00002b
:1049780000740000617300006b5f00007375000035
:10498800706d0000637500005f710000613a0000ff
:104998002009000056650000726900006679000071
:1049a8003a200000434c00004b2000004f750000e7
:1049b80074200000284a0000362900002069000001
:1049c80073200000617400002020000020200000f7
:1049d8002020000020200000304800007a2000003d
:1049e800286f0000666600002900000025320000dc
:1049f800640a000000740000617300006b5f00002f
:104a080073750000706d0000637500005f71000031
:104a1800613a000020090000566500007269000034
:104a2800667900003a200000434c00004b2000004b
:104a38004f75000074200000284a00003629000045
:104a48002061000074200000636100002e20000037
:104a5800253700006c640000487a00002028000018
:104a680064690000763d00002532000064290000da
:104a780000740000617300006b5f00007375000034
:104a8800706d0000637500005f710000613a0000fe
:104a9800200900005374000061720000746900006e
:104aa8006e6700002e00000074610000736b000048
:104ab8005f730000757000006d630000755f000093
:104ac800716100003a200000094e00006f74000078
:104ad800653a000020520000656600002e200000a4
:104ae8006465000073690000676e0000617400006f
:104af8006f720000732000006172000065200000e2
:104b08006f6e00002047000050530000524d000017
:104b1800206d00006f640000756c000065210000c6
:104b280000740000617300006b5f00007375000083
:104b3800706d0000637500005f710000613a00004d
:104b480020090000526500006d6f000076650000c6
:104b58003a200000416c00006c2000006a750000db
:104b68006d70000065720000732000006f6e000019
:104b780020500000756d0000706b0000696e000029
:104b880020550000534200002044000065620000e8
:104b9800756700000d0a00000909000009090000f6
:104ba800204100006461000070740000657200001c
:104bb8002e00000074610000736b00005f7300003a
:104bc800757000006d630000755f00007161000082
:104bd8003a200000094d00006f6e00006974000063
:104be8006f7200003a20000053550000504d00003d
:104bf8004355000020760000696100002050000045
:104c0800756d0000706b0000696e00002055000093
:104c180053420000204400006562000075670000f0
:104c2800204100006461000070740000657200009b
:104c38002e00000074610000736b00005f730000b9
:104c4800757000006d630000755f00007161000001
:104c58003a20000009520000656300006f720000ee
:104c6800643a0000204d0000696e0000696d000084
:104c7800756d000020630000757200007265000009
:104c88006e74000020660000726f00006d20000046
:104c9800706f0000776500007220000073750000d7
:104ca800707000006c7900002e0000007461000034
:104cb800736b00005f730000757000006d63000087
:104cc800755f0000716100003a2000000952000081
:104cd800656300006f720000643a0000204d000018
:104ce800617800002e2000006672000065710000e7
:104cf800756500006e630000792000006f66000093
:104d0800204300004c4b0000204f00007574000049
:104d1800202800004a360000292e0000000000006c
:104d280067700000735f00006f700000656e000020
:104d38003a090000094500006e610000626c00003d
:104d480065640000204e00004d450000412d000024
:104d5800686100006e6400006c6900006e67000006
:104d6800206300006f6400006520000028620000d6
:104d7800756600006665000072730000206300001d
:104d88006c6500006172000065640000292e000057
:104d980000670000707300005f6900006e69000022
:104da800743a000009090000496e000069740000a7
:104db800696100006c6900007a65000064200000e9
:104dc8004750000053200000726500006164000035
:104dd800696e0000672000007661000072690000bb
:104de800616200006c650000732e00000025000061
:104df80030320000643a00002530000032640000c0
:104e08002e25000030320000640000002447000016
:104e1800504700004741000000250000327500009f
:104e28002532000075250000327500002e2500008f
:104e3800327500002c250000662c00002563000058
:104e48002c250000662c0000256300002c2500009e
:104e5800752c0000257500002c250000662c00002c
:104e6800256600002c4d00002c250000662c000053
:104e78004d2c00002c250000752a0000253200006a
:104e8800585c0000725c00006e0000000d0a000013
:104e98000d0a000000500000756d0000706b0000e6
:104ea800696e000020430000756200006553000031
:104eb80061740000204b000069740000202f00007e
:104ec8005049000043320000342000002850000000
:104ed800504d0000204400003129000020500000ff
:104ee800494d000020310000205400006573000087
:104ef8007420000026200000566100006c69000044
:104f080064610000746900006f6e00002073000087
:104f18006f6600007477000061720000652e000063
:104f28000d0a000000760000312e0000302e00002f
:104f38003520000062750000696c000074200000d4
:104f48006f6e0000204e00006f76000020200000e9
:104f580033200000323000003135000020610000ad
:104f680074200000303800003a340000333a000062
:104f7800343700002e0d00000a000000466f0000c4
:104f88007220000075730000652000006f6e00003d
:104f980020500000756d0000706b0000696e000005
:104fa80020430000534b00002044000065760000b9
:104fb800204200006f610000726400002e0d0000a6
:104fc8000a00000074610000736b00005f7000004d
:104fd800696d00005f710000613a0000200900005f
:104fe800504f000052540000342000006973000044
:104ff80020740000757200006e65000064200000d7
:105008004f4e00002e00000074610000736b00001a
:105018005f700000696d00005f710000613a000078
:1050280020090000504f00005254000034200000b6
:105038006973000020740000757200006e6500003e
:10504800642000004f460000462e00000074000057
:10505800617300006b5f0000706900006d5f000005
:10506800716100003a20000009530000746f0000cd
:1050780070700000656400002e000000746100007c
:10508800736b00005f700000696d00005f710000c5
:10509800613a0000200900005374000061720000aa
:1050a800746900006e6700002e00000025300000c3
:1050b800326400003a25000030320000643a0000f3
:1050c80025300000326400003a250000303200002c
:1050d800642e00002530000032640000000000004b
:1050e80074610000736b00005f3500007365000099
:1050f800633a000020090000537400006172000048
:10510800746900006e6700002e000000302900005e
:1051180025730000200000000d0a000000000000b8
:105128003129000025730000200000000d0a00004e
:105138000000000033290000257300002000000053
:105148000d0a00000000000032290000257300004d
:0c515800200000000d0a00000000000014
:020000040000fa
:105164000000fa00151780000402200005027200f6
:10517400141788000080fa00000006000000fa00fe
:1051840015178000f4fd2f000482620014178800b4
:105194000080fa00000006000000fa0055178000a5
:1051a4000410200005027200541788000080fa00e1
:1051b400000006000000fa0055178000f4ef2f00ed
:1051c40004826200541788000080fa000000060080
:1051d4000000fa0055178000040820000502720040
:1051e400541788000080fa00000006000000fa004e
:1051f40055178000f4f72f000482620054178800ca
:105204000080fa00000006000000fa00d5168000b5
:105214000420200005027200d41688000080fa00e1
:10522400000006000000fa00d5168000f4df2f000d
:1052340004826200d41688000080fa000000060090
:105244000000fa00541780000430a00054178800ae
:105254000080fa00000006000000fa0055178000e4
:1052640074ff2f0004826200541788000080fa0043
:10527400000006000000fa00541780000420a0007b
:10528400541788000080fa00000006000000fa00ad
:1052940055178000b4ff2f00048262005417880061
:1052a4000080fa00000006000000fa005517800094
:1052b4000402200005027200541788000080fa00de
:1052c400000006000000fa0055178000f4fd2f00ce
:1052d40004826200541788000080fa00000006006f
:1052e4000000fa00541780000440a00054178800fe
:1052f4000080fa00000006000000fa005517800044
:10530400f4fe2f0004826200541788000080fa0023
:10531400000006000000fa00951780000420200019
:1053240005027200941788000080fa00000006004d
:105334000000fa0095178000f4df2f000482620059
:10534400941788000080fa00000006000000fa00ac
:10535400951780000410200005027200941788003d
:105364000080fa00000006000000fa009517800093
:10537400f4ef2f0004826200941788000080fa0082
:10538400000006000000fa009517800004082000c1
:1053940005027200941788000080fa0000000600dd
:1053a4000000fa0095178000f4f72f0004826200d1
:1053b400941788000080fa00000006000000fa003c
:1053c40095178000040420000502720094178800d9
:1053d4000080fa00000006000000fa009517800023
:1053e400f4fb2f0004826200941788000080fa0006
:1053f400000006000000fa00d51680000400280012
:1054040005027200d41688000080fa00000006002d
:105414000000fa00d5168000f4ff27000482620021
:10542400d41688000080fa00000006000000fa008c
:10543400d51680000400240005027200d4168800ea
:105444000080fa00000006000000fa00d516800073
:10545400f4ff2b0004826200d41688000080fa0056
:10546400000006000000fa00551780000400220026
:1054740005027200541788000080fa00000006003c
:105484000000fa0055178000f4ff2d00048262002a
:10549400541788000080fa00000006000000fa009b
:1054a400551780000400210005027200541788007b
:1054b4000080fa00000006000000fa005517800082
:1054c400f4ff2e0004826200541788000080fa0062
:1054d400000006000000fa00d51680000410200029
:1054e40005027200d41688000080fa00000006004d
:1054f4000000fa00d5168000f4ef2f000482620049
:10550400d41688000080fa00000006000000fa00ab
:10551400d41680000430a000d41688000080fa005d
:10552400000006000000fa00d516800074ff2f006a
:1055340004826200d41688000080fa00000006008d
:105544000000fa00d5168000040021000502720054
:10555400d41688000080fa00000006000000fa005b
:10556400d5168000f4ff2e0004826200d416880051
:105574000080fa00000006000000fa00d416800043
:105584000440a000d41688000080fa000000060041
:105594000000fa00d5168000f4fe2f000482620099
:1055a400d41688000080fa00000006000000fa000b
:1055b400141680000420a000141688000080fa004d
:1055c400000006000000fa0015168000b4ff2f004a
:1055d40004826200141688000080fa0000000600ad
:1055e4000000fa00141680000430a000141688008d
:1055f4000080fa00000006000000fa001516800082
:1056040074ff2f0004826200141688000080fa00e0
:10561400000006000000fa001517800004042000b2
:1056240005027200141788000080fa0000000600ca
:105634000000fa0015178000f4fb2f0004826200ba
:10564400141788000080fa00000006000000fa0029
:105654001517800004082000050272001417880042
:105664000080fa00000006000000fa001517800010
:10567400f4f72f0004826200141788000080fa00f7
:10568400000006000000fa00541780000410a00077
:10569400541788000080fa00000006000000fa0099
:1056a40055178000d4ff2f0004826200541788002d
:1056b4000080fa00000006000000fa005417800081
:1056c4000400a000541788000080fa0000000600bf
:1056d4000000fa0055178000e4ff2f0004826200e6
:1056e400541788000080fa00000006000000fa0049
:1056f400941780000410a000941788000080fa001a
:10570400000006000000fa0095178000d4ff2f0067
:1057140004826200941788000080fa0000000600ea
:105724000000fa00941780000400a0009417880079
:105734000080fa00000006000000fa0095178000bf
:10574400e4ff2f0004826200941788000080fa00ae
:10575400000006000000fa00151680000400240072
:1057640005027200141688000080fa00000006008a
:105774000000fa0015168000f4ff2b00048262007a
:10578400141688000080fa00000006000000fa00e9
:105794001516800004002800050272001416880003
:1057a4000080fa00000006000000fa0015168000d0
:1057b400f4ff270004826200141688000080fa00b7
:1057c400000006000000fa001517800004102000f5
:1057d40005027200141788000080fa000000060019
:1057e4000000fa0015178000f4ef2f000482620015
:1057f400141788000080fa00000006000000fa0078
:105804001517800004202000050272001417880078
:105814000080fa00000006000000fa00151780005e
:10582400f4df2f0004826200141788000080fa005d
:10583400000006000000fa00551680000402200053
:1058440005027200541688000080fa000000060069
:105854000000fa00551680000402200005027200c0
:10586400541688000080fa00000006000000fa00c8
:10587400541680000440a000541688000080fa00ea
:10588400000006000000fa0055168000f4fe2f0008
:1058940004826200541688000080fa0000000600aa
:1058a4000000fa00541680000430a000541688004a
:1058b4000080fa00000006000000fa00551680007f
:1058c40074ff2f0004826200541688000080fa00de
:1058d400000006000000fa00541680000420a00016
:1058e400541688000080fa00000006000000fa0048
:1058f40055168000b4ff2f000482620054168800fd
:105904000080fa00000006000000fa00541680002f
:105914000410a000541688000080fa00000006005d
:105924000000fa0055168000d4ff2f0004826200a4
:10593400541688000080fa00000006000000fa00f7
:10594400541680000400a000541688000080fa0059
:10595400000006000000fa0055168000e4ff2f0046
:1059640004826200541688000080fa0000000600d9
:105974000000fa005516800004042000050272009d
:10598400541688000080fa00000006000000fa00a7
:1059940055168000f4fb2f00048262005416880020
:1059a4000080fa00000006000000fa00551680008e
:1059b4000408200005027200541688000080fa00d2
:1059c400000006000000fa0055168000f4f72f00ce
:1059d40004826200541688000080fa000000060069
:1059e4000000fa0055168000041020000502720021
:1059f400541688000080fa00000006000000fa0037
:105a040055168000f4ef2f000482620054168800bb
:105a14000080fa00000006000000fa00551680001d
:105a24000420200005027200541688000080fa0049
:105a3400000006000000fa0055168000f4df2f0075
:105a440004826200541688000080fa0000000600f8
:105a54000000fa0055168000044020000502720080
:105a6400541688000080fa00000006000000fa00c6
:105a740055168000f4bf2f0004826200541688007b
:105a84000080fa00000006000000fa0055168000ad
:105a94000480200005027200541688000080fa0079
:105aa400000006000000fa0055168000f47f2f0065
:105ab40004826200541688000080fa000000060088
