:020000040000fa
:080000000002040000000000f2
:020000040000fa
:100008004c0300004c0300004c0300004c030000ac
:100018004c0300004c0300004c0300004c0300009c
:100028004c0300004c0300004c0300004c0300008c
:100038004c0300004c0300004c0300002c48000057
:100048004c0300004c0300004c030000664800000d
:100058004a4800004c0300004c0300004c03000019
:100068004c030000aa0200004c0300004c030000ef
:100078004c0300004c0300004c0300004c0300003c
:100088004c0300004c0300004c0300004c0300002c
:100098004c0300004c030000ac48000090480000ee
:1000a8004c0300004c0300004c0300004c0300000c
:1000b8004c0300004c0300004c0300004c030000fc
:1000c8004c0300004c0300004c0300004c030000ec
:1000d8004c0300004c0300004c0300004c030000dc
:1000e8004c0300004c0300004c0300004c030000cc
:1000f8004c0300004c0300004c0300004c030000bc
:100108004c0300004c0300004c0300004c030000ab
:100118004c0300004c0300004c0300004c0300009b
:100128004c0300004c0300004c0300004c0300008b
:100138004c0300004c0300004c0300004c0300007b
:100148004c0300004c0300004c0300004c0300006b
:100158004c0300004c0300004c0300004c0300005b
:100168004c0300004c030000e64800002049000052
:100178004c0300004c0300004c0300004c0300003b
:10018800584900003c4900004c0300004c030000a3
:100198004c0300004c0300004c0300004c0300001b
:1001a8004c0300004c0300004c0300004c0300000b
:1001b8004c0300004c0300004c0300004c030000fb
:1001c8004c0300004c0300004c0300004c030000eb
:1001d8004c0300004c0300004c0300004c030000db
:1001e8004c0300004c0300004c0300004c030000cb
:0801f8004c0300004c03000061
:020000040000fa
:100208004c0300004c0300004c0300004c030000aa
:100218004c0300004c0300004c0300004c0300009a
:100228004c0300004c0300004c0300004c0300008a
:100238004c0300004c0300004c0300002c48000055
:100248004c0300004c0300004c030000664800000b
:100258004a4800004c0300004c0300004c03000017
:100268004c030000aa0200004c0300004c030000ed
:100278004c0300004c0300004c0300004c0300003a
:100288004c0300004c0300004c0300004c0300002a
:100298004c0300004c030000ac48000090480000ec
:1002a8004c0300004c0300004c0300004c0300000a
:1002b8004c0300004c0300004c0300004c030000fa
:1002c8004c0300004c0300004c0300004c030000ea
:1002d8004c0300004c0300004c0300004c030000da
:1002e8004c0300004c0300004c0300004c030000ca
:1002f8004c0300004c0300004c0300004c030000ba
:100308004c0300004c0300004c0300004c030000a9
:100318004c0300004c0300004c0300004c03000099
:100328004c0300004c0300004c0300004c03000089
:100338004c0300004c0300004c0300004c03000079
:100348004c0300004c0300004c0300004c03000069
:100358004c0300004c0300004c0300004c03000059
:100368004c0300004c030000e64800002049000050
:100378004c0300004c0300004c0300004c03000039
:10038800584900003c4900004c0300004c030000a1
:100398004c0300004c0300004c0300004c03000019
:1003a8004c0300004c0300004c0300004c03000009
:1003b8004c0300004c0300004c0300004c030000f9
:1003c8004c0300004c0300004c0300004c030000e9
:1003d8004c0300004c0300004c0300004c030000d9
:1003e8004c0300004c0300004c0300004c030000c9
:0803f8004c0300004c0300005f
:020000040000fa
:100400006f7a21000e7f24000e018800000000009a
:10041000000020000000e000020032000001200087
:10042000200288000c000700803e2400010020000c
:1004300011000700000020000000e0000200320070
:1004400000000200000000004c61020000000000fb
:100450000040da000000fe004440a90080f02000c7
:100460000000e0000300320000002000a00188002e
:100470004440a80000000600910188008000780038
:100480000000eb0015003700e280400032a0b4000d
:100490009101ba00e280400032a0b4009102ba009b
:1004a000e280400032a0b4000002eb00472bde00e7
:1004b000f507b200602ce10004003a000059eb009f
:1004c0008301e900fdff3e00040037006128e100e0
:1004d000010032000082eb00040007001101ba00a5
:1004e0000200e000e8ff3a00000006003159ba00bf
:1004f0008301e9000c0032002159ba008301e900b0
:10050000080032000400e00003003a00e2804000ee
:1005100032a0b400f5ff370011d9ba008301e90019
:10052000faff3a008100e800e180400032a0b40008
:10053000000006009c560400000000001a6204003f
:10054000000000000654040000000000844a04007b
:10055000000000000000fa008620a9000080fa00d8
:10056000004006000400fa000002eb00040f7800cf
:100570000002eb0014079800790607000000eb006a
:100580007f06070004002800040f7800c40920003b
:10059000140798009e0090001e007800b006070027
:1005a0000080fa00000006000800fa0020479800ca
:1005b0002107980032079800b2060700b506070029
:1005c0002e4290000482fb000402420004427800a4
:1005d00004407800cc060700ae0607000002eb00de
:1005e000040f7800090037002e02900014427800b2
:1005f000ae0290008502e8002507980004407800cc
:10060000c1060700a30607001e0fe8003e02900087
:100610009e027800848f5200f3ff3900ca0607005b
:100620009c0607000002eb00040078000080fa003e
:10063000000006000600fa00004f7800110798003d
:10064000220798008f060700920607009e42780056
:100650000582fb0004024200044278000404a0006a
:1006600004407800a80607008a060700823e2000a2
:100670009e0090002e009000b70607008506070038
:10068000b1060700830607000002eb0004007800b3
:100690000080fa00000006000040da000000fe00c2
:1006a000800078001104b100030035009101b10011
:1006b00001003c000050a000000006006900e100bd
:1006c000040035006d00e100030034000002b100b9
:1006d0000100320000000500100005001004b10008
:1006e000030035009001b10001003c00100005003e
:1006f000000005001004b100070035009001b100b2
:10070000040034007000b100030035009001b10016
:1007100001003c00100005000000050000c0da00e8
:10072000000006000a00fa00e20f500022003e001e
:1007300024bd8000e10f5200060032008723200014
:10074000462320002423200005232000e08f5300af
:1007500004003a00872220004622200024222000a4
:1007600005222000000028001500600003003a0068
:10077000800b780007002800958a73000540200050
:100780009482620001003a0014a0a0008202780066
:1007900006003700940378000710b200fdff320016
:1007a000b103fb00070b78008502e900e08f5200df
:1007b000f8ff3a000800370034002000c0bf9f0057
:1007c000e2bf9f00b4bf9f00d1bf9f006a80570067
:1007d000d2ff07006fb99700020078000080fa008e
:1007e0000000060000c0da00000006000a00fa005f
:1007f000e00f500027003a0024bd8000e10f5200b6
:1008000006003200872320006623200025232000d5
:1008100004232000e08f530004003a0087222000c8
:10082000662220002522200004222000000028004b
:100830001400600003003a00800b780007002800d5
:10084000148a7300020278000c0037008703e90065
:10085000950178006180610002003a00e08f53004a
:10086000faff3a0015007800e1036000070032004b
:10087000960378000402e90087587800e00f5200e0
:1008800002003200070a2000f1ff37000400510087
:100890000800370024002000c0bf9f00b4bf9f00a5
:1008a0006a805700d1bf9f00e2bf9f00cdff0700c5
:1008b0006fb897000080fa0000000600839f680070
:1008c0000100e00002003d0060001000e080180020
:1008d0000300e00002003d0060011100e08119000a
:1008e000050007004f00e00002003b006000100020
:1008f000e0801800000006006022b8000602200018
:100900000000d0008180d2000482d2008582d20013
:100910000000a0000202520083825a00030031004e
:100920000202420083824a000000a1000603e9009f
:10093000f3ff3a0000000600889fbe008a9fbe00b9
:100940003004be002005be000404440085844c0031
:1009500006054d0087854d000898be000a90be0030
:100960000440e10005c8e10006d0e10007d8e1003d
:1009700002003100680040001008e8004f05be008a
:100980004f04be00000006001000fa00889fbe0061
:100990008a9fbe00110020000605be000404be00b0
:1009a0003002be002003be00c4b79f00d5b79f0031
:1009b000e6b79f00f7b79f000802520089825a00ed
:1009c0000a035b008b835b0084bf9f0095bf9f0081
:1009d000a6bf9f00b7bf9f000498be000698be0048
:1009e0004fb29700dfb297006fb39700ffb3970045
:1009f000b0000700010039008000eb004f05be0089
:100a0000108810004f04be000080fa0000000600ad
:100a10001400fa00889fbe008a9fbe008c9fbe0013
:100a20000006eb0079000700ccb79f00bcb79f0021
:100a3000acb79f009cb79f008cb79f000605be0017
:100a40000404be000d0420004fb39700bfb297000e
:100a5000860343002fb29700e00f530004003d00cf
:100a6000990007000f004000b3ff070003003700a4
:100a7000950007000f004000c3ff0700cfb29700aa
:100a800095bf9f00e08f5200090035006600070007
:100a900014002000050020006033b8000000720040
:100aa0008180720002017300838173005700070088
:100ab0000c06e8008d0f5600e3ff3a001fba9700be
:100ac000e00f520005003d000802be000a03be0010
:100ad00000fe2f000f00400097ff07004faa97006d
:100ae000e00f520008003a000fb497009fb497003f
:100af0002fb59700bfb59700d8b79f00e9b79f0003
:100b0000fab79f008bbf9f00470007004f06be004b
:100b10004f05be004f04be000080fa000000060032
:100b2000881f780018002000881f7800b8ff070091
:100b30008f87e9004f04780000000600801feb005b
:100b4000b3ff07008f87e90000000600889fbe0002
:100b50008a9fbe004100070008003d007a000700a0
:100b600043000700180020004600070008003d0071
:100b70002f0007000004eb00050037000004eb0025
:100b80004000070002003d00290007001800200077
:100b9000e3ff0700e00f5400010032003e000700b1
:100ba0004f05be004f04be0000000600889fbe0037
:100bb0008a9fbe008c1f78002800070006003d00b9
:100bc000610007001c002000290007003900070011
:100bd00006003d00040037000006eb002900070076
:100be00002003d005800070012000700d3ff070075
:100bf000e00f560001003200270007004f06780082
:100c00004f05be004f04be000000060001000700b3
:100c10000000060090b79f00a1b79f00b2b79f00e9
:100c2000c3b79f0000000600070007000000060091
:100c3000450007000402540085825c0006035d0045
:100c400087835d00000006001fb09700afb09700db
:100c50003fb19700cfb1970000000600e00f5000b1
:100c6000e08f5800e00f5900e08f590000000600a7
:100c70000000540081805c0002015d0083815d0002
:100c800000000600e00f5200e08f5a00e00f5b000a
:100c9000e08f5b00000006006022b8006033b800ff
:100ca0000000520081805a0002015b0083815b00da
:100cb000000006000820e10009a8e1000ab0e100f8
:100cc0000bb8e100000006004f2bde00deff07003e
:100cd00086837300858242004f23de00a7b79f0002
:100ce000868272000402420095b79f00ffaa970017
:100cf0004f2bde00858242000602720084b79f00ff
:100d00006faa97004f23de00040242008682720021
:100d1000f5af9f004f18de0000027200caff070007
:100d2000e4af9f00000040008180480002014900bc
:100d3000838149000802be000a03be00b5ff070018
:100d400000fe2f00000006006044b8006055b800a7
:100d500000000600889fbe008a9fbe008c1f78009e
:100d60000006eb00e00f5000e08f5800e00f590044
:100d7000e08f590007003d006044b8006055b8009e
:100d80001c0020000000540081805c0002015d0016
:100d900083815d00e00f5200e08f5a00e00f5b009e
:100da000e08f5b0007003d006044b8006055b8006c
:100db0000c00a2000402540085825c0006035d0062
:100dc00087835d0084020700e00f560006003200b2
:100dd0006022b8006033b8000000520081805a00e1
:100de00002015b0083815b004f0678004f05be0067
:100df0004f04be0000000600020ab900001bb90043
:100e00000200b8008100420081004300000006009b
:100e100081037800920207000001be006000b80064
:100e20000478a30013003a006220e10015003e00a0
:100e30000d0039008301d1000281d3008180d300ed
:100e40008301d1000281d3008180d3008301d100ce
:100e50000281d3008180d3000538b000c42add00b0
:100e6000f300b2008381720007f0a70003f0a00036
:100e700000000600f3ff2700f2ff2f006110b90009
:100e8000fbff370003ff2700f7ff37002800fa00b9
:100e9000889fbe008a9fbe008c9fbe0003866b00a9
:100ea000840207000028a30064003a000128a30080
:100eb00067003a000008a30062003a000108a3009e
:100ec00065003a001e009000be08900081064000b8
:100ed000ed3fb100f4805700ee019000111ab80008
:100ee0008e099000311bb8009e099000311cb8009b
:100ef000511db800f485570046000700fe01900020
:100f00003a0007008b85e8003e0007008e0990003c
:100f100040000700ee019000340007008b85e800d8
:100f2000380007008e099000400007009e099000dd
:100f30001b18b800890440000a854800fe01900093
:100f4000340007008b85e80038000700ee019000b0
:100f5000300007008e0990001b18b800890440007b
:100f60000a8548000a98a30008003a0004024200db
:100f700085824a0006034b0087834b0008044c001f
:100f800089844c000a054d008d06e90084827200b8
:100f9000850273004c3add008502720001003200c8
:100fa00015002000443ade001400b2004538de008f
:100fb000cb45dd000b007000c540de00cb4ddd00f1
:100fc0008b8070004549de00cb55dd000b017100c0
:100fd000c551de000d0378004f02070003f0a100a9
:100fe0000cf0a70003f0a000460237001b18b80061
:100ff0008502400006834800e0834b0060044c00fb
:10100000070037001b18b80006034000878348001c
:10101000faff37001b18b800870340000884480017
:10102000e0844c0060054d00000006001b18b8006d
:101030000804400089844800faff37000108a30033
:101040002d023a005800be005801be00e3ff3700f1
:101050000008a30028023a0009047800f9ff3700cd
:101060008f1fd100580207008f87e9000000e000c1
:1010700000000600801feb00530207008f87e90085
:101080000000e000000006001400fa00889fbe0087
:101090008a9fbe008c9fbe00040678000004be003c
:1010a0000205be00680047000a90be000890be001e
:1010b0006e0207006200e1000800be000a01be00e7
:1010c000040020000b003a001e029000e43fb10033
:1010d0006e009000fe0090000e0990009e099000a6
:1010e000f300b20005fe2300858171000bf0a7001c
:1010f00003f0a000040e780002023700809feb008e
:10110000310207008f87e9000000e00000000600c0
:101110002800fa00889fbe008a9fbe008c9fbe00f8
:1011200007067800878669000c003b0003047800fe
:101130008704780008f0a10009f0a100840f500096
:10114000858f5800860f5900890f5c00030033001b
:101150000cf0a20001003a000cf0a100d50107003c
:101160006400e1005f003200780147006408e1009c
:10117000610032006c014700748557003200be00e8
:101180001201be003a04be001a05be001e03900004
:10119000be0a90008503530006003d000004fd00d8
:1011a0008104fd000205fd008305fd008703ea00c0
:1011b000050378000df8a300040032006004140059
:1011c000e0841c0060051d00e0851d006022b80061
:1011d0007d0320000d38e1008006eb000b00390094
:1011e0004433dd00f300b20083017300390037009f
:1011f000848272000d027800e10664008b85d100c4
:101200000a85d3008984d3000884d3008703e900ca
:10121000f7ff3b0008004000898048000a014900b0
:101220008b81490004003b0060001000e080180042
:1012300060011900e08119000358a3000900320081
:101240008d82720084827200610260008301d1008d
:101250000281d3008180d3000080d3000603e80020
:101260001b0037000348a30017003a000600e00007
:10127000170034000603e9000d00a3000000480039
:101280008180480002014900838149000348a3008e
:101290000f003a000600e000090034000603e900f0
:1012a000000040008180480002014900838149001c
:1012b00001003a000003eb000348a300f5ff3200f1
:1012c0006022b800020037008482720061826600ea
:1012d0009101070003f0a1000cf0a70003f0a000ab
:1012e00088013700640147006408e10002003a0009
:1012f0000df8a30080013a003200be001201be00ca
:10130000800137001400fa00889fbe008a9fbe004b
:101310008c9fbe000004be000205be0068004700ae
:101320000a90be000890be00d00107000070a70020
:101330000bf0a1000bf8a30020003a009e099000da
:101340000e099000fe0090006e0090009e0290003a
:1013500034432000848252006a0132000a003c00bb
:10136000b4fc2f000428e100140034008301d100f4
:101370000281d3008180d3000080d3008502e80081
:10138000faff3a005f013700b40020000428e100b2
:1013900007003c0000004000818048000201490035
:1013a000838149008502e900faff3a0055013700c0
:1013b0000300280002002000010037006011b8007f
:1013c0006000b8004f0137002800fa00889fbe0077
:1013d0008a9fbe008c9fbe0003866b00350107000c
:1013e0006400e100440032006408e1004a00320079
:1013f0006100e100460032006108e100490032006e
:10140000ec0647006000b8003d02be003d03be0090
:10141000f48657006011b8003d04be003d05be00d3
:101420007d0320000b0037000000a0008d06e900be
:10143000130032000402420085824a0006034b007a
:1014400087834b0000004000818048000201490072
:10145000838149000802520089825a000a035b0016
:101460008b835b00f0ff3b000802420089824a0048
:101470000a034b008b834b008d06e900edff3a0019
:101480008482720086827200f707b200878272003f
:1014900001003200150020001e0490003e0b900059
:1014a00006035400e63fb0000368a30007003200c3
:1014b0000000a7000500a0008301d1000281d30035
:1014c0008180d3000080d3000603e8008301d100af
:1014d0000281d3008180d3000080d3000002eb00a2
:1014e0000482d2000c01070003f0a1000cf0a70059
:1014f00003f0a00003013700640247006408e10024
:10150000fd0032003400be003401be00f6ff37009b
:101510006108e100f80032006011b8006000b80016
:10152000f1ff370003ff270002002000fbff370018
:10153000889fbe0000827000040271000482710066
:101540002400320036432000c50020008383cf00f2
:101550000a0039000541b1008283cf00070039003d
:101560000541b1008183cf00040039000541b1007d
:101570008083cf00010039000541b10085c35300cd
:101580006022b800120032000a003b008482720020
:10159000610260008301d1000281d3008180d30009
:1015a0000080d3000603e8008743e800f7ff3a0015
:1015b0000700370000004000818048000201490018
:1015c000838149000603e9008743e900f9ff3a00f7
:1015d000d10007004f04be000000060007f0a20083
:1015e000cbfe37004f89de008201780046013700cc
:1015f0001400200054013700889fbe008a9fbe005f
:101600008c1f78006b0107007201330003866c00a9
:101610006450e1002e0032006420e100330032000b
:101620006150e1002f0032006120e1003100320002
:1016300085855500eb07b000090020000804200054
:10164000050037000804440089844c000a0031007a
:101650000603430087834b000001530081815b0038
:10166000f8ff33000203be000800a0000804440095
:1016700089844c00f6ff3900c639dd008301730010
:1016800001003200130020008904d1000884d30037
:101690000998a300050032000800a7000300a0007d
:1016a0008904d1000884d3008b05e8008904d100a7
:1016b0000884d3000001eb000281d200550107002d
:1016c00001f0a1000cf0a70001f0a0004a013700d2
:1016d0006420e1004c0132000801be000200be009f
:1016e000f7ff37006120e100470132006000b800d9
:1016f000f3ff37000000200001f82700f0ff37005b
:10170000889fbe008a9fbe008c1f780029010700b9
:101710003001330003866c006450e1002400320085
:101720006420e100270032006150e1002200320015
:101730006120e100210032008b854200eb07b100ff
:101740000134b800003ab8000804420089844a0015
:10175000013ab8000030b8008880400009014a0012
:10176000040033000000400081804800020149006d
:101770008b05e900c909dd0083017000010032001a
:1017800013002000c814de004814dd004709de0005
:101790001200b200c808de00088470001d010700b6
:1017a00001f0a1000cf0a70001f0a0001201370029
:1017b0006120e100140132000801be000200be00f9
:1017c000f7ff37006150e100fcff3a000e013700df
:1017d000f4ff2f00dc003700889fbe008a9fbe0008
:1017e0008c9fbe000404b8000506b80089044600ba
:1017f00060854e000606b8000a054600e0854e00ea
:101800000706b8008b054600040eb80089044600a0
:101810000a854e00e0854d00050eb8000a05460019
:101820008b854e00060eb8008b0546000416b800e6
:101830000a0546008b854e000516b8008b0546004c
:10184000041eb8008b0546000800be000a01be0059
:101850004f06be004f05be004f04be00000006004c
:10186000c70ade00f107b200f50fb200080032002f
:10187000e1cf4200020032000170a0002400050008
:10188000810f7000010032000408050044000500cb
:10189000810f700002003a00140005008502e90083
:1018a0000000400081c04800fcff3b000170a00028
:1018b00024000500680447000294be000094be00a6
:1018c000fc0447008694be008494be0009007800a2
:1018d000660007000800780064000700990078009f
:1018e000814f70000b003b000800be00ef000700b6
:1018f0004f00b10003003700f3ff2700f2ff2f0075
:101900006110b9004f06be004f05be004f04be0077
:101910000080fa0000000600180020005700200098
:10192000080453000d003d000600200097fc2f0026
:101930000740e1001e0034008482720061026000f2
:101940008301d1000281d3008180d3000080d300c5
:101950000804e800f8ff3a00470020006104600036
:1019600005047400040464000d00320061004000ae
:10197000e080480060014900e081490003b8a5000b
:10198000070032000603e8006538e10004003a0071
:101990008301d1000281d3008180d3000080d30075
:1019a000f87f20000830e1000300350008037800cc
:1019b0006000b8006011b8004433dd00f300b200ed
:1019c0008301730000000600889fbe008a9fbe004e
:1019d0008c9fbe000404be000605be00809fbe00b2
:1019e000829fbe00bf000700040678000800be000a
:1019f0000a01be00bb000700840678004f03be004a
:101a00004f02be008d4f76007fb097001300330069
:101a1000f0ff2f008b8f6b0006003b000d06660069
:101a20000c00a7000a00370007f0a60010002000f5
:101a30000a003700880f5200898f5a008a0f5b0016
:101a40008b8f5b00030039001000200001003e0076
:101a50000000200007f0a7000000ea004f06be00cb
:101a60004f05be004f04be00000006008000780055
:101a70005002be005003be004439de00f700b20041
:101a8000f37f200003016100090032000218e10029
:101a900016003a0085017200830173008381730090
:101aa0000008200015003a00400020001300370015
:101ab00085017200830173008381730005003a0081
:101ac00004a8be0006a8be00100020000b003700ce
:101ad0000201e9000402420085824a0006034b002d
:101ae00087834b000748a300f9ff32000740a0009e
:101af00004a8be0006a8be002000200080009800b8
:101b00009200980000000600881f78000304780007
:101b10000300e00007003d0060001000e0801800b6
:101b200060011900e081190002003b0001f02d0066
:101b3000030037007d00070008f0a70001f0a000b7
:101b40004f04780000000600889fbe008a9fbe00f8
:101b5000841f7800170007004f0078001100330041
:101b6000f0ff2f00838f6c0006003b00040565002a
:101b70000a00a7000800370009f0a60010002000a6
:101b800008003700820f5400838f5c000300390087
:101b90001000200001003e000000200009f0a70016
:101ba0000000ea004f05be004f04be000000e00048
:101bb000000006000004be0029ff07000003be006d
:101bc0000405be000200be0025ff0700844f75001b
:101bd000000006000200be006450e100050036006f
:101be0006420e100020036000968a30001003a0009
:101bf0000800be000160a0004f0678004f05be003f
:101c00004f04be0000000600f0ff2f00f1ff270088
:101c1000f9ff370081002000618055000b003d0076
:101c20000b00200061fe2f000100e1001d003400c8
:101c300082817100610164008904d1000884d300ad
:101c40000000e800faff3a00710020006100640023
:101c500003007000020060000900320061044400cb
:101c6000e0844c000988a500050032008b05e800df
:101c70006808e10002003a008904d1000884d3001a
:101c8000f20f20000258e10005003d00c75ddd00b5
:101c9000f907b2008980750008007800000006008e
:101ca0000bf827008b00780000000500e48240005c
:101cb0001078a30007003200640240001178a300ee
:101cc0003400be001401be00040032000330a7003f
:101cd000000006003500be001501be000330a00064
:101ce0000000060005ff27000582610007003200a2
:101cf0000428e1000100320024000500060007006e
:101d000001003a0044000500040805000200070035
:101d1000f9ff3a00140005006f8261008102700033
:101d2000850271008502720000000600889fbe00d7
:101d30008a9fbe000082700004027100048271005c
:101d4000260032000004be000200be006011b80090
:101d50006b092000950220000182cf000a003900a3
:101d60000541b1000082cf00070039000541b100f4
:101d70000982cf00040039000541b1000882cf007c
:101d8000010039000541b100054252001200320045
:101d90000a003b0082817100610164008100d10072
:101da0000080d3008984d3000884d3008b05e80029
:101db0000442e800f7ff3a00070037000804440037
:101dc00089844c0000004800818048008b05e900b0
:101dd0000442e900f9ff3a008eff07004f05be00fc
:101de0004f04be00000006000200fa00000f780059
:101df00084e0a9001e027800044278006742620075
:101e000067426200674262000482fb006702620070
:101e10004c22dd0036058000f5ff280085026300b6
:101e200005027200340588009e0278006882620014
:101e30004322de0004427800614262000482fb001b
:101e4000610262004722dd00a6048000f5f72f0042
:101e50008502630005027200a40488000080fa0075
:101e6000000006000400fa00000f78001107980037
:101e70000002eb00340888001e029000640888000d
:101e80001e027800840888000080fa000000060026
:101e90000000fa000411800066026200e60f5200a2
:101ea00002003a0034118000030037003511800031
:101eb000f40f200004826200040078000080fa0021
:101ec000000006000000fa00841180006602620033
:101ed000e60f520002003a00b41180000300370000
:101ee000b5118000f40f2000048262000400780025
:101ef0000080fa00000006000000fa008412800052
:101f000066026200e60f520002003a00b41280003e
:101f100003003700b5128000f40f20000482620035
:101f2000040078000080fa00000006000000fa00bb
:101f30008415800066026200e60f520002003a003b
:101f4000b415800003003700b5158000f40f2000a1
:101f500004826200040078000080fa00000006009d
:101f60000000fa0007e2a9009600a9009620a90047
:101f70008600a9008620a9000080fa000000060063
:101f80000200fa00000f78008600a9008620a90050
:101f90001e027800044278006742620067426200d5
:101fa000674262000482fb006702620066058000ef
:101fb00085ff2f008502630005027200640588001a
:101fc000040720001e0262004422de000442780062
:101fd000674262000482fb00670262004422dd0067
:101fe00066058000f5f82f00850263000502720087
:101ff000640588009e027800688262004322de0049
:1020000004427800614262000482fb0061026200c7
:10201000b6048000e5ff2f00850263000502720010
:10202000b4048800040820001e0262004722de007b
:1020300004427800614262000482fb006102620097
:1020400004024200b6048000d5ff2f008502630021
:1020500005027200b40488000080fa000000060047
:102060000400fa00000f7800110798001e0290008b
:10207000241088001e027800341088000080fa00c6
:10208000000006000000fa000602a8000080fa0026
:10209000000006000000fa0000000000341080007c
:1020a00061026200e00f5200fcff3a003410800031
:1020b00062026200e00f5200f8ff3a003410800024
:1020c00064026200e00f5200f4ff3a003410800016
:1020d00068026200e00f5200f0ff3a003410800006
:1020e00070026200e00f5200ecff3a0045108000e1
:1020f0000400240004826200e00f5200e7ff3a006f
:102100000080fa00000006000200fa00004f78008c
:102110009e4278000582fb00141088004510800064
:102120000408200004826200e00f52000200320026
:1021300000c2eb00010037000042eb0004407800d1
:102140000080fa00000006000000fa000642a80025
:102150000080fa00000006000800fa00100798004e
:1021600021079800320798000002eb00040f780066
:10217000270037000662a800080037009e0278009a
:102180003e029000848f5200020031001e0fe800d2
:10219000020037001e02900021003700f501070001
:1021a00000427800e04f5200f4ff32000002eb00e2
:1021b000040f780004108000844278002e02900002
:1021c000054a78002e0290000402e80024079800d7
:1021d0001e0290000402e900140798001e029000fd
:1021e000e00f520003003a0006a2a8000682a800f1
:1021f0000300370006a2a9000682a8000000000024
:102200003410800070026200e00f5200fcff3a00c0
:102210001e029000e00f5200d6ff3a000002eb00d1
:10222000040078000080fa00000006000200fa00b6
:10223000000f78001e0278000442780061426200bc
:102240000482fb00610262004522dd00063a800044
:10225000f5fd2f008502630005027200043a880034
:102260000080fa00000006000000fa0094e0a900d7
:1022700011e1a90084e0a9000080fa000000060036
:102280000000fa0021e2a9009560a9009580a9004c
:102290008560a9008580a9000080fa000000060082
:1022a0000200fa00000f78008560a9008580a9006f
:1022b0001e027800044278006742620067426200b2
:1022c000674262000482fb00670262004c22dd006c
:1022d00046058000f5ff28008502630005027200b4
:1022e00044058800040720001e0262004422de002c
:1022f00004427800674262000482fb0067026200c9
:102300005605800085ff2f008502630005027200dc
:10231000540588009e027800688262004322de0035
:1023200004427800614262000482fb0061026200a4
:102330004b22dd00a6048000f57f2f00850263009c
:1023400005027200a4048800040820001e02620036
:102350004722de0004427800614262000482fb00f2
:10236000610262004c22dd00a6048000f5ff2e0011
:102370008502630005027200a40488000080fa0050
:10238000000006000800fa001007980021079800d6
:10239000320798003e029000441188001e0290000f
:1023a000041188002e0290001411880002003700ea
:1023b00034118000044f7800141180006102620023
:1023c000e00f5200faff3a008560a9000080fa0091
:1023d000000006000000fa00151180000410200023
:1023e0000482620004f0a7000402ea000402e9008b
:1023f0004f22de0004427800044078000080fa009a
:10240000000006000200fa00000f780004118000ae
:1024100066026200e60f520003003a001e027800d6
:102420002411880003003700f40f20001e02620010
:10243000241188000080fa00000006000000fa0065
:1024400031e2a90097c0a90097e0a90087c0a900c0
:1024500087e0a9000080fa00000006000200fa00f0
:10246000000f780087c0a90087e0a9001e0278004d
:10247000044278006742620067426200674262007d
:102480000482fb00670262004822dd00960580009e
:10249000f58f2f0085026300050272009405880005
:1024a000040720001e0262004422de00044278007d
:1024b000674262000482fb00670262004c22dd007a
:1024c00096058000f5ff2800850263000502720072
:1024d000940588009e027800688262004322de0034
:1024e00004427800614262000482fb0061026200e3
:1024f0004e22dd00b6048000f5ff2b00850263004c
:1025000005027200b4048800040820001e02620064
:102510004722de0004427800614262000482fb0030
:102520004f22dd00b6048000f5ff2700850263001e
:1025300005027200b40488000080fa000000060062
:102540000800fa0010079800210798003207980049
:102550003e029000c41188001e0290008411880081
:102560002e0290009411880002003700b411800000
:10257000044f78009411800061026200e00f520065
:10258000faff3a0087c0a9000080fa0000000600a8
:102590000000fa00951180000410200004826200ff
:1025a00004f0a7000402ea000402e9004f22de0062
:1025b00004427800044078000080fa000000060021
:1025c0000200fa00000f78008411800066026200a9
:1025d000e60f520003003a001e027800a4118800a2
:1025e00003003700f40f20001e026200a4118800cf
:1025f0000080fa00000006000000fa0051e2a90085
:102600009e40a9009e60a9008e40a9008e60a9008e
:102610000080fa00000006000200fa00000f7800b7
:102620008e40a9008e60a9001e0278000442780046
:102630006742620067426200674262000482fb00f8
:10264000670262004822dd0066068000f58f2f00d9
:1026500085026300050272006406880004072000fa
:102660001e0262004422de000442780067426200db
:102670000482fb00670262004c22dd0066068000d7
:10268000f5ff2800850263000502720064068800d9
:102690009e027800688262004322de0004427800d5
:1026a000614262000482fb00610262004222dd009e
:1026b000f6048000b5ff2f0085026300050272005a
:1026c000f4048800040820001e0262004722de0095
:1026d00004427800614262000482fb0061026200f1
:1026e0004322dd00f604800075ff2f0085026300a1
:1026f00005027200f40488000080fa000000060061
:102700000800fa0010079800210798003207980087
:102710003e029000c41288001e02900084128800bd
:102720002e0290009412880002003700b41280003c
:10273000044f78009412800061026200e00f5200a2
:10274000faff3a008e40a9000080fa00000006005f
:102750000000fa009512800004102000048262003c
:1027600004f0a7000402ea000402e9004f22de00a0
:1027700004427800044078000080fa00000006005f
:102780000200fa00000f78008412800066026200e6
:10279000e60f520003003a001e027800a4128800df
:1027a00003003700f40f20001e026200a41288000c
:1027b0000080fa00000006000000fa00b1e2a90063
:1027c0009f00a9009f20a9008f00a9008f20a900c9
:1027d0000080fa00000006000200fa00000f7800f6
:1027e0008f00a9008f20a9001e0278000442780003
:1027f0006742620067426200674262000482fb0037
:10280000670262008606800085ff2f008502630054
:102810000502720084068800040720001e02620080
:102820004422de0004427800674262000482fb001a
:10283000670262004422dd0086068000f5f82f0062
:102840008502630005027200840688009e027800fb
:10285000688262004322de00044278006142620026
:102860000482fb00610262004822dd00f604800061
:10287000f5ef2f008502630005027200f404880062
:10288000040820001e0262004722de000442780095
:10289000614262000482fb00610262004922dd00a5
:1028a000f6048000f5df2f00850263000502720048
:1028b000f40488000080fa00000006000800fa0016
:1028c0001007980021079800320798003e029000f8
:1028d000c41588001e029000841588002e02900006
:1028e0009415880002003700b4158000044f78006a
:1028f0009415800061026200e00f5200faff3a0076
:102900008f00a9000080fa00000006000000fa0015
:1029100095158000041020000482620004f0a700d6
:102920000402ea000402e9004f22de0004427800bb
:10293000044078000080fa00000006000200fa005f
:10294000000f78008415800066026200e60f5200d6
:1029500003003a001e027800a41588000300370027
:10296000f40f20001e026200a41588000080fa0007
:10297000000006000000fa00441080000402d100ac
:1029800061426200044078000080fa000000060006
:102990000b00370030427800e04f52000300320055
:1029a0000201e900b14f5200050032000480fb0033
:1029b000954278008582fb0005005000000006006b
:1029c00081027800e00f5100f2ff3a000200780027
:1029d000000006000c00fa00a0bf9f00c0bf9f00cf
:1029e0003f000700140c2000b0bf9f00f0bf9f0005
:1029f000d4bf9f0074815700efb097006c805700e0
:102a0000700007000080fa0000000600889fbe00ea
:102a10000004be00050037000000fb0089007800bc
:102a20001e020700e10f4000040032003840780029
:102a3000e04f5000f8ff3a000000eb004f04be00ea
:102a40000000060001782100881f7800efff0700d2
:102a50000178210000047800a00020000f02070088
:102a6000080078004f047800000006000c00fa000f
:102a7000889fbe00f4ff270000047800d4bf9f00a9
:102a80008004eb0088bf9f0099bf9f00a8bf9f00f4
:102a9000240c200078815700b4bf9f00cfb097006e
:102aa00070805700fe0207000fba9700094a7800ad
:102ab0000fba9700080052004f04be000080fa00d1
:102ac000000006000002780002003700315a78004a
:102ad0000201e900e00f5100fcff3a00000006008f
:102ae000000278008042eb00b4cf1200fdff3a00f4
:102af0000080ea000000420000000600881f780005
:102b0000c0bc8000db0807000004780008007800e3
:102b1000eaf60700e00f5000f9ff3a00e10f440029
:102b200003003200c1bc80000800780004090700df
:102b30004f04780000000600889fbe000004780063
:102b40008a1f7800814478000205780004fd2f0078
:102b500008024200e90f520002003e00040478001f
:102b60000f00370008007800dcf60700e00f500087
:102b700005003200e00f5500030032000800780025
:102b8000c7f607000004780008007800d9f60700af
:102b900000c2eb00e00f5000060032007805b100e3
:102ba0008984fb0000c2eb00890f540001003d0046
:102bb000084278004f057800044078004f04be00ba
:102bc000000006000002eb00af04b000c0bc8800ab
:102bd000889fbe00844478008a9fbe0081057800eb
:102be0008c9fbe00020578008e1f7800e4b79f001e
:102bf0009f0137000886fb008b05e8000c00780079
:102c0000aef60700e00f500002003200bbff0700e5
:102c10009701370054c2b300844f540087013a0033
:102c20000044780025c0b30090f79f0088467800e4
:102c30000b00780005467800040037004cc0b30054
:102c4000010037002cc0b3000b0078003b42780035
:102c500075c6b300854f520020003e0085c2e900d2
:102c6000854f520035003100f9c25200854f5200a5
:102c70009b0032000e003e00e7c25200854f52001a
:102c80002e00320006003e00e04f52007a00320073
:102c9000fbc25200854f5200d8003a002500370091
:102ca00075c4b300854f5200d4003a0023003700aa
:102cb00035c6b300854f5200bc003200e2003e0032
:102cc000ebc25200854f5200cc003a009df79f00a6
:102cd0008cf79f001500200088003700f5c6b30070
:102ce000854f5200dd00320008003e00e6c252006f
:102cf000854f5200d4003200d2ff3900e3c24200b7
:102d0000854f5200bd003a007500370055c7b3002b
:102d1000854f5200cc003200e3c24200854f520082
:102d200073003200e5c25200854f5200b3003a00f2
:102d3000750037008d46e800c3ff37009df79f0000
:102d40008cf79f006dff0700e04f540001003a0030
:102d5000b8c3b300c0bc800046080700d4022000fe
:102d6000840f500007003a00a06f9f000844e9005c
:102d7000c0bc80003f080700befa2f000f074700c5
:102d800002003700aefa2f000f0747000046eb00a5
:102d9000ed02200007003700005f78008d0f500023
:102da00001003a000c46e8000844e900c0bc80007d
:102db00030080700e04f54000400320004fd2f00eb
:102dc00000024200e90f5200f3ff3600e04f5600c8
:102dd00002003a008d0f5000efff3200e04f540028
:102de0001c00320054062000840f50000300320003
:102df00054042000840f500016003a00005f780051
:102e00000844e900c0bc80001a080700e04f5400e5
:102e10000a003200d4022000840f50000300320068
:102e20000482e900840f500004003a000844e900dd
:102e3000005f7800c0bc80000e080700e04f54001f
:102e40000400320004fd2f0000024200e90f52008e
:102e5000f6ff3600004feb00e10f400002003200a9
:102e6000c1bc800036080700a4fa2f000f02420000
:102e7000840f570002003a0009447800940037009c
:102e80009ff29700e0cf5200f9003a008944e80031
:102e90000a85e9000ff29700e24f52000900320064
:102ea0001a0478008000eb00a0fa2f000f00400009
:102eb00039090700d6f70700009cbe000294be0047
:102ec000eb0037001a0478008000eb00a0fa2f0016
:102ed0000f00400039080700008cbe00e4003700f6
:102ee000e24f560055ff32008cc0b30056ff37004a
:102ef0009df79f008cf79f008002eb00e5b79f00d5
:102f000004c1b300530037009df79f00fbfe07008c
:102f10009ff29700e0cf520001003a004a07780084
:102f2000c0bc8000d307070000067800e10f460010
:102f300011003a00094478000c007800c9003700fd
:102f40001b02fb00840f560002003a008b05e800cc
:102f5000100037001ff29700e04f520001003a00c6
:102f60000c5f78000844e9000a003200c0bc800011
:102f7000c0070700000678000c02e800e10f5200cd
:102f8000040036000c007800ccf50700e00f50007c
:102f9000ebff32009ff29700e0cf5200b4003a00fe
:102fa0008944e800054f7800b10037009df79f0085
:102fb0000d427800e04f520002003a008944e800d8
:102fc0004a077800c0bc8000aa070700e10f400054
:102fd00002003a0009447800a20037009ff29700ef
:102fe000e0cf520001003a00005f78000844e90099
:102ff0004240a900f3ff3c009d0037000484fb0021
:1030000004fd2f0008024200e90f520009003e00b3
:10301000e40807000b02780000447800840578007b
:10302000b402fb000503b100e98f5200fbff36003c
:1030300005ff3700c0bc80008e070700800f5400da
:1030400082003a008a0037009df79f008cf79f00ae
:10305000a4c0b300b4ef9f000400370085c0b300e4
:103060009df79f008cf79f00b5ef9f00a3fe070020
:10307000c0bc80007f0707000042eb00f0b79f0054
:10308000a4ef9f0080027800d4022000848f5200b9
:1030900005003a00c0bc800076070700f0b79f002b
:1030a00014c0b300a4ef9f006fb19700bfe8970072
:1030b0007fb09700a0fe0700e14f40000c003a00ef
:1030c00009447800c1bc80007fb097009c070700ce
:1030d000e04f54006a003a00c4bc80003400900005
:1030e00070006000670032000080eb006500370070
:1030f00004032000ffb29700848f520015003a00ad
:10310000c0bc80005b07070084072000840f5000cc
:1031100004003a006fb29700e00f5200070032003f
:103120000a00370084052000840f500007003a0091
:10313000efb29700e08f520004003200c0bc800064
:103140004c070700f0b79f0002003700c1bc8000a9
:103150007b070700bfea97000582fb0005002000ff
:10316000b4b79f00c5b79f006066b8003fb1970035
:10317000cfb197000c00be000844e9001ef707001d
:103180006fb197000006be00bfe897007fb09700c0
:1031900069fe07000080fb000100200000064600d9
:1031a00081864e00e04f540008003200c0bc800011
:1031b000300707006fb19700f0b79f00bfe8970096
:1031c0005dfe0700e14f4000e8ff3a006fb1970055
:1031d000bfe897007fb0970057fe0700e14f40001f
:1031e00003003a00c1bc80007fb09700540707007d
:1031f0002fea9700e04f52000200320060061600ee
:10320000e0861e009ff29700e0cf520018003a00bf
:103210008944e8000a85e9000ff29700e44f520064
:1032200003003a001a0278000c8abe001000370032
:103230001a0278000c0a78000d003700c0bc80002c
:103240000c070700800f560009003200094478007f
:10325000e10f400003003200c1bc800038070700c6
:1032600007003700e04f540005003a000500370022
:103270001b447800e04f54005efe3a000944780099
:103280000880fb004f0778004f06be004f05be00c8
:103290004f04be00af04b10000000600889fbe00ce
:1032a000010478008084eb0038029000e2026200a2
:1032b0003b00320004037800980290000620b20020
:1032c00002003a00e08f520035003a000490a0005e
:1032d0008004780034049800f90fb200e08f5200a7
:1032e00002003a00a8029000050c7800ea8f540012
:1032f00005003a000408b20003003a008800780094
:10330000d0002000e5ff070018029000d8029000ce
:10331000850f52000b0032000402e80015c0b30014
:103320001404980018027800094a7800040ce80098
:10333000c4792100054a7800ea8f540018003a0049
:10334000050037000940780088007800340807003d
:103350008004780012003700380290000410b20098
:103360000f00320018019000a80090004800900063
:10337000ecf4070018029000840f500004003200a3
:10338000380290000403b300340498008084eb00fa
:103390000002eb001404980028029000040c78004e
:1033a000090078004f04be0000000600d4c6b30038
:1033b0000800fa00889fbe000084fb008a9fbe00c0
:1033c000844f500034003600a95f21004b062000d6
:1033d000110009000b84d800720040004300dd009a
:1033e00000804400810578006022b80006002000bb
:1033f00007fe2300aa0020005001be004000be00ce
:10340000a2f607000002be00110009008a85d8005c
:1034100080057800e9854500c35ddd008b854400ab
:103420000203be0084bf9f0095bf9f00a6bf9f0000
:10343000b7bf9f003b02be002b03be000fb8970032
:103440009fb897002fb99700bfb997008ff6070074
:103450000002be00110009000a84d80001047800af
:103460004344dd00888444000203be0084bf9f0003
:1034700095bf9f00a6bf9f00b7bf9f003902be0047
:103480002903be000fb897009fb897002fb9970087
:10349000bfb997001d003700ea4f500013003600f7
:1034a000aa002000a95f2100110009000a84d800a9
:1034b00001057800690440004355dd004344dd0008
:1034c000088444008a8444006022b800060020007a
:1034d00007fe23003800be002801be006bf607007f
:1034e0003902be002903be0008003700a45f210096
:1034f0004344dd00080442006022b80006002000ba
:1035000007fe23003800be002801be005ff607005a
:103510004f05be004f04be000080fa000000060008
:10352000d4c6b3000800fa00889fbe008a9fbe0080
:10353000e04f500022003d000040ea000004fb0084
:10354000844f50000a00340044062000a9002000e7
:10355000110009000404d800aa5f2100110009002d
:103560008900d800e9004000c308dd0020003700d2
:10357000ea4f50000f003400a400200011000900a1
:103580000404d800a45f2100690040004300dd006e
:1035900000004200430cdd00080242005001be0062
:1035a0004000be005403be004402be0037f60700d0
:1035b000370037004344dd00a45f210031003700ad
:1035c0000004fb00844f5000230034004406200018
:1035d000a9002000110009000404d800aa54210009
:1035e000110009008900d800e9004000c308dd008f
:1035f000810045008b0920008a8545003102be000c
:103600002103be003b00be002b01be001ff60700d9
:103610000002be00110009000904d800010478006e
:103620004344dd00080545000203be0084bf9f003f
:1036300095bf9f00a6bf9f00b7bf9f003a02be0084
:103640002a03be000fb897009fb897002fb99700c4
:10365000bfb99700d5ff3700ea4f5000070034008c
:10366000a4002000110009000404d800a454210083
:10367000690040004300dd00c5ff37004344dd0022
:10368000a4542100080442003800be002801be00f6
:103690004f05be004f04be000080fa000000060087
:1036a000ef05b000889fbe008a9fbe008c9fbe00c1
:1036b000000678008e1f78000007eb00e19f9f0056
:1036c00082af9f006000b8006011b80080a79f0023
:1036d00091a79f00a2a79f00b3a79f00d90537001d
:1036e000ef98970054c2b3008100e800e19f9f006b
:1036f000844f500006003a00810278008006eb00fb
:1037000007c3b30000c2b300b1c2b3000e0037005c
:103710003c0290000404b200040032001c02780055
:10372000004a7800040ee800050037000000fb00a6
:103730008c007800d9fe0700e10f4000c10532007f
:103740000e07e800bf05370005037800d2c2b300ba
:1037500035427800824f52000900320005003c00db
:10376000804f520008003200814f52000c003a0096
:1037700007003700874f520009003a000600370063
:103780000d30a000f0ff37000d00a000eeff370065
:103790000d10a000ecff37000d20a000eaff37005d
:1037a000e2826600010032000d00a100e88266009e
:1037b000010032000d20a1008402fb000503b100ce
:1037c000e98f52000d003e00860278008003eb0076
:1037d0003502fb006a3bb9000403b10086034200d6
:1037e0001502fb00050378000403b100e90f520045
:1037f000f7ff360097b79f000a0037008002eb0002
:1038000095b79f00a5c2b300854f520005003a004e
:103810008fab97000603e8004700780087af9f0052
:1038200090b79f00e4c2b300964f120017003a0011
:103830000de0a00064425200d64f12000300320097
:10384000060278008003eb00090037000fa99700fb
:103850000603e800c201780082af9f00d3af9f004b
:10386000c7c6b3000d0037006a3bb900868342002b
:1038700004037800b402fb000503b100e98f520095
:10388000f9ff3600d7af9f00f5ff37000002eb00cd
:103890000dc0a000d4af9f00f1ff37008602780072
:1038a0003542780005037800874f52002d00320022
:1038b000e59f9f00c5c6b300854f520014003c0031
:1038c000e8c25200854f52002400320009003c003b
:1038d000ecc25200854f52002e003200ebc2420073
:1038e000854f52009a003200e04f52005a053200d4
:1038f000b800370065c6b300854f52001f00320084
:10390000e3c24200854f5200b2003a001300370074
:1039100035c7b300854f52002200320007003c003b
:10392000e4c25200854f5200170032008542e80081
:10393000854f5200a7003a001600370055c7b30064
:10394000854f5200a8003200e3c24200854f52006a
:10395000a0003a00e4579f0010003700e4579f0092
:10396000a3003700f082660004012000010032004d
:10397000040028008d067200c8ff3700e4579f003e
:103980000da0a0009a003700e4579f000d60a00032
:1039900097003700e4579f000d50a0000d70a00065
:1039a000930037008faa9700e4579f0045027800e4
:1039b00085af9f0004047800e00f520001003a0038
:1039c000c8762100880278000002eb000100370071
:1039d0000402e80065437a00e04f5300fcff3a0020
:1039e000840478005fab9700e00f530003003200bf
:1039f000890f530001003100860478000002eb00bb
:103a00009fb39700898f530001003600098253004d
:103a1000e8866600ddaf9f000d007800e00f5000e3
:103a20002c003a008406780004c2b300100037006e
:103a3000bc0290000504b200040032009c02780031
:103a4000844a7800050ee8000700370084bf9f0015
:103a50008c0078000002200010fe07000fba9700cb
:103a6000e10f4000010032000e07e8008d06e9007a
:103a7000e08f5600eeff3a000082eb0015003700a1
:103a80003c0290000404b2000900320008027800f1
:103a90001c037800b4427800054b780004047800d9
:103aa000060ee800e0cf520008003a000a00370096
:103ab000080278008c0078003400fb0004047800d1
:103ac000f6fd0700e10f4000030032000e07e8009a
:103ad0000100370084067800090278008404e900b8
:103ae000e00f5200e6ff3a000d027800dfa89700d1
:103af000e08f5000d30432008406780004c2b30083
:103b000010003700bc0290000504b200040032002f
:103b10009c027800844a7800050ee8000700370010
:103b200084bf9f008c00780000022000dbfd0700ae
:103b30000fba9700e10f4000010032000e07e800c5
:103b40008d06e900e08f5600eeff3a00bd04370015
:103b50000fa99700f08266004202780082af9f00b2
:103b600004007800cf80de00010178008201780037
:103b700090af9f00a1af9f00b2af9f00c3af9f0067
:103b80004800de00480add0000007200e0579f0098
:103b9000e08f520009003200e04f50000700320071
:103ba000e14f400005003200afd29700f0579f0070
:103bb000855f9f0029002000030037002fd3970066
:103bc00019002000f6579f0078f92f000f044400d9
:103bd00084ff3700e4579f0068f92f000f0444006a
:103be000190020007fff3700e4579f000d0cb30041
:103bf0000470200004826600650232000400210087
:103c0000048266000200320067002000d7af9f00e8
:103c100070826600090032000faa97004401be00be
:103c20004400be0084af9f0090af9f00a1af9f00f3
:103c3000b2af9f00c3af9f000a0037008faa970062
:103c40004500be0085af9f0071f407000002be0072
:103c50000203be0094af9f00a5af9f00b6af9f00c8
:103c6000c7af9f006022b8006033b8001fa897005c
:103c7000afa897003fa99700cfa99700f8f40700d5
:103c8000e00f50000a003d001fa89700afa8970062
:103c90003fa99700cfa9970003f0a20090af9f0023
:103ca000a1af9f00b2af9f00c3af9f003d00b30024
:103cb0000002eb001fa89700afa897003fa997004c
:103cc000cfa99700d48f9f006022b8006033b8005e
:103cd000e8f40700e00f500034003200a4f92f0090
:103ce0000f0242001fa89700afa897003fa99700b6
:103cf000cfa99700e4f407005f889700a400200094
:103d00000000e9006300b900110009000400d800b8
:103d1000d08f9f00e00f500002003d000000e9003e
:103d2000d08f9f005f8c97000840ea00fcfd0700e1
:103d30001faa9700afaa97003fab9700cfab9700a1
:103d400052f407000002be000203be0084a79f00d9
:103d500095a79f00a6a79f00b7a79f006022b80065
:103d60000600200007ff2300bdf40700e00f50000d
:103d700002003d000804e9000b0037006022b80093
:103d800006002000470224000fa097009fa0970084
:103d90002fa19700bfa19700d8f40700e00f5000b3
:103da000020035000804e800d88f9f00dfaa9700c2
:103db000f88f52000f003c00054078007bfd0700a3
:103dc0000002be000203be001fa89700afa8970024
:103dd0003fa99700cfa99700cdf407000002be00cd
:103de0000203be0094af9f00a5af9f00b6af9f0037
:103df000c7af9f005f8c9700e90f540015003c008f
:103e00006022b8006033b8001fa89700afa89700e1
:103e10003fa99700cfa9970096f40700e00f500044
:103e2000320032001fa89700afa897003fa9970063
:103e3000cfa9970033f50700e00f5000e08f58003e
:103e4000e00f5900e08f590028003a00e10f5400bc
:103e5000260034000400200005002e00b6e02200f9
:103e6000170124000fa097009fa097002fa1970093
:103e7000bfa197007af40700e00f500002003d0058
:103e8000730454000100370072045400d88f9f005f
:103e90002f589700a2fd07000002be000203be00db
:103ea0001fa89700afa897003fa99700cfa9970038
:103eb00084a79f0095a79f00a6a79f00b7a79f0074
:103ec00041f507000ff507000205be000004be0023
:103ed0006000b8006011b80090af9f00a1af9f00d4
:103ee000b2af9f00c3af9f00170037001fa8970015
:103ef000afa897003fa99700cfa9970001f5070049
:103f00000205be000004be0089f507000002be00e5
:103f10000203be001fa89700afa897003fa9970013
:103f2000cfa99700adf507000002be000203be0056
:103f300094af9f00a5af9f00b6af9f00c7af9f0093
:103f40000002eb00d48f9f00216b210010c0b30052
:103f5000080037003102be003103be000440e1001a
:103f600005c8e10006d0e10007d8e10003003900f0
:103f70000040e800f44f5000f6ff3a009fb297006f
:103f80005f8a97005fab970004825200e0579f0062
:103f9000860252000002fb000482520094b79f0088
:103fa000e00f5300020032000402e90094b79f00c2
:103fb00063826600030032009fb397008703e90025
:103fc00097b79f00648266004500320062826600f7
:103fd000e1826600e00f5200110032003c029000c6
:103fe0000404b200080032001c037800b4c2b3001d
:103ff000e08f52000100320004c2e800044b780058
:10400000060ee80015003700b0022000e08f5200d5
:10401000010032000080e8008c0078000c003700be
:10402000e08f5200200032003c0290000404b200f5
:10403000050032009c02780004c2b300844a780074
:10404000050ee800050037008c0078000002200013
:1040500092fc0700e10f4000130032000e07e80059
:10406000110037003c0290000404b200040032004a
:104070001c027800054a7800040ee80007003700ab
:10408000f5b79f008c0078000003200083fc070038
:10409000ffb29700e10f4000010032000e07e80078
:1040a0008904e90006003700c8a79f00d9a79f0030
:1040b000eaa79f00fba79f009fb4970005c3b3002a
:1040c000e08f5400e7ff3c0099b79f004fa4970092
:1040d000dfa497006fa59700ffa597006e0037003b
:1040e000688266001f003a00110037003c02900011
:1040f0000404b200040032001c027800054a780073
:10410000040ee80007003700f5b79f008c00780028
:104110000002200061fc0700ffb29700e10f4000a1
:10412000010032000e07e8008904e90006003700ac
:10413000c8a79f00d9a79f00eaa79f00fba79f00e1
:104140009fb4970005c2b300e08f5400e7ff3c0026
:1041500099b79f004fa49700dfa497006fa5970021
:10416000ffa5970062826600e1826600e00f5200c0
:10417000110032003c0290000404b200080032003a
:104180001c037800b4c2b300e08f5200010032007b
:1041900004c2e800044b7800060ee8003d0037003a
:1041a000b0022000e08f5200010032000080e800e1
:1041b0008c00780034003700e08f52003600320067
:1041c0003c0290000404b200050032009c0278001a
:1041d00004c2b300844a7800050ee8002d003700c1
:1041e0008c00780000022000270037003c0290007d
:1041f0008502fb000404b20013003200a26a210011
:10420000c32add00850241009c0078005503be00f2
:104210004502be00c1a79f000800be000a01be0003
:104220003ff20700a4002000050020006033b80022
:1042300042f207004fa2970005c3b300054a4000b1
:10424000040ee80013003700a66a2100c32add002f
:10425000850243000800be000a01be005503be00ef
:104260004502be002ef20700a40020000500200039
:104270006033b80031f207008c007800040320009e
:10428000000242000400780004fc0700e10f400037
:10429000010032000e07e8006f5297008442e900e7
:1042a000e5579f00e04f5200d0ff3a001100370061
:1042b0003c0290000404b200040032001c027800aa
:1042c000084a7800040ee800050037008c007800ea
:1042d00000032000f1fb0700e10f40000100320065
:1042e0000e07e8005f8a97000402e900d48f9f0060
:1042f0000100370008c3b3005f8a9700e00f520047
:10430000ebff3c00dfab9700f28f5300030034005b
:1043100024c1b300e4579f00020037002fd8970054
:10432000e0579f006f529700dfa897000403fb003f
:1043300006835000c6a79f00e04f52000e003200d7
:104340003c0290000404b200050032001c02780018
:10435000e5c2b300054a7800040ee8000500370006
:104360008c007800e0022000ccfb0700e10f400049
:10437000010032000e07e8006f50970068fc07004c
:104380000002be000203be001fa89700afa897005e
:104390003fa99700cfa99700bcf20700d9f3070007
:1043a000350037003c0290008502fb000404b20097
:1043b00013003200a36a2100c32add008582410078
:1043c0001c0178005503be004502be00d2af9f001d
:1043d0000800be000a01be00d1f10700a4002000c1
:1043e000050020006033b800d4f107005faa9700f1
:1043f00005c3b300054a4000040ee800130037006f
:10440000a66a2100c32add00850243000800be0021
:104410000a01be005503be004502be00c0f1070000
:10442000a4002000050020006033b800c3f107009d
:104430008c00780004032000000242000400780091
:1044400096fb0700e10f4000010032000e07e80074
:10445000ef539700a06a21000702fb004322dd0012
:10446000040240000800be000a01be005403be0062
:104470004402be00b1f107006f5297000205be0072
:104480000004be008442e900e5579f00e04f52005f
:10449000c4ff3a0011003700bc0290000504b200ce
:1044a000040032009c027800844a7800050ee8007f
:1044b0000700370084bf9f008c00780000032000b5
:1044c00076fb07000fba9700e10f400001003200b1
:1044d0000e07e8008904e90006003700cfa4970022
:1044e000d0af9f00e1af9f00f2af9f0083b79f0066
:1044f00004c3b300e08f5400e7ff3a005fac9700bd
:10450000efac97007fad97008fb59700e886660007
:104510004c0232009fb09700e08f500049023400f7
:104520000802be000a03be000dc2b3008104780079
:104530003c0090000004b200040032001c0078002f
:104540000d487800000ee8000d00370084bf9f0082
:10455000f5b79f00d6b79f00e7b79f008c007800a3
:10456000000220004dfb07000fba9700ffb2970032
:104570005fb39700efb39700e10f400001003200f6
:104580000e07e8008904e900e9ff3a002d02370030
:104590008d027800050cb2002a003a00e08f560028
:1045a00005003d000fa997004205be004204be0071
:1045b00082af9f0016003700708266000e00320046
:1045c0000fab97004602be00c4979f00d5979f008f
:1045d00086af9f00160290004fa2de00e4979f0076
:1045e000f4979f004f949700df9497006f95970082
:1045f000ff959700060037000fa897004004780049
:1046000080af9f00cfc4de00090578008a057800de
:10461000e00f5400e08f5c00e00f5d00e08f5d0074
:1046200023003d006022b8006033b8003d00b300b5
:104630000804520089845a000a055b008b855b00e0
:104640001b003700e08f560005003d008fa8970043
:104650004105be004104be0081af9f001400370039
:10466000f08266000c0032008faa97004501be0060
:10467000a4979f0082979f0093979f00b4979f00f5
:1046800085af9f000f9497009f9497002f959700f8
:10469000bf959700060037008fab9700470478005e
:1046a00087af9f00090020000a0020000b002000b7
:1046b0005fa89700e00f500009003a0011002000a9
:1046c000d1af9f00e00f5400e08f5c00e00f5d0071
:1046d000e08f5d00020032000001eb00d2af9f00ce
:1046e0008d01780004042000030cb20093af9f00fa
:1046f000848f51002c00320003003c00e08f5100f9
:10470000080032003c003700040820009faa9700f0
:10471000848f520010003200040c2000848f52005d
:1047200035003a00216b210010c0b3003102be00f9
:104730003103be000440e10005c8e10006d0e100fd
:1047400007d8e1002b0039000040e800f44f50008a
:10475000f6ff3a002700370010c0b3000401200024
:10476000050020006033b8000440e10005c8e10006
:1047700006d0e10007d8e1001e003900410020000a
:104780000402d0008582d2000683d2008783d20043
:104790008100e900faff3a000040e800f04f5000c5
:1047a000f1ff3a001300370010c0b300840020006e
:1047b000050020006033b8000440e10005c8e100b6
:1047c00006d0e10007d8e1000a00390032002000dd
:1047d0000402d0008582d2000683d2008783d200f3
:1047e0000201e900faff3a000040e800f54f5000ee
:1047f000f1ff3a00e0579f00ef519700dfaa9700c2
:104800000302fb00850f520002003d00e5579f00a8
:10481000040037005fab9700840f530001003d0098
:10482000d4af9f009fb39700e08f53000400320085
:1048300063826600020032008703e90097b79f0099
:104840000400240004826600090032001fb09700b3
:10485000dfa89700810f50000300340001005000d2
:1048600090b79f00020037000001eb0092b79f0055
:10487000ef5197008002eb000302fb00c5a79f00e9
:104880001fb39700840f530002003400040253004a
:10489000c4a79f006482660045003200e282660081
:1048a00061826600e08f520011003200bc0290006d
:1048b0000504b200080032009c027800b6c2b300c2
:1048c000e00f52000100320006c3e800864a78007b
:1048d000050ee80015003700b0022000e00f52007e
:1048e000010032000080e8008c0078000c003700e6
:1048f000e00f52000e0032003c0290000404b200af
:10490000050032001c02780005c2b300054a780099
:10491000040ee800050037008c007800000220003b
:104920005efa0700e10f4000010032000e07e800c8
:10493000cfa39700e08f53006300320098b79f0029
:10494000a9b79f00bab79f00cbb79f0004c3b300bd
:1049500087047800bc0290000504b2000400320015
:104960009c027800844a7800050ee80007003700b2
:1049700084bf9f008c0078000003200047fa0700e6
:104980000fba9700e10f4000010032000e07e80067
:104990008904e900efff3a00c9a79f001fb4970000
:1049a000afb497003fb59700cfb5970046003700ea
:1049b000cfa09700e08f50001e0032006882660092
:1049c0001c003a0098b79f00a9b79f00bab79f0094
:1049d000cbb79f00cfa4970004c2b300bc029000e5
:1049e0000504b200040032009c027800844a78007a
:1049f000050ee8000700370084bf9f008c00780098
:104a00000002200025fa07000fba9700e10f4000ce
:104a1000010032000e07e8008904e900efff3a00c8
:104a2000c9a79f001fb49700afb497003fb5970088
:104a3000cfb59700e282660061826600e08f520087
:104a400011003200bc0290000504b20008003200e0
:104a50009c027800b6c2b300e00f520001003200a1
:104a600006c3e800864a7800050ee8001500370006
:104a7000b0022000e00f5200010032000080e80088
:104a80008c0078000c003700e00f52000e0032005e
:104a90003c0290000404b200050032001c027800c1
:104aa00005c2b300054a7800040ee800050037008f
:104ab0008c00780000022000f8f90700e10f4000a8
:104ac000010032000e07e800dfa89700a56a210068
:104ad0000102e90098b79f00a9b79f00bab79f00ed
:104ae000cbb79f004221dd006323b900929f9f0056
:104af0004322dd008601780085024200839f9f00eb
:104b0000f59f9f00708266008d027800f48f9f00f1
:104b10000502b200e58f9f00a3003700dfa89700d1
:104b20001fa997008100e90003042000d1af9f0076
:104b3000830f51007300320003003c00e00f51006e
:104b4000080032007e003700040820009faa97006a
:104b5000848f520056003200040c2000848f5200d3
:104b600077003a00e08f56001f003d007f9b9700c2
:104b70001fb09700afb097003fb19700cfb197003b
:104b80003604be002605be000802be000a03be00b1
:104b9000e3ef07000802be000a03be00e0579f00d3
:104ba0000000fb00cf80de00010178008201780068
:104bb00068f007001fb29700afb297003fb39700ad
:104bc000cfb397000002520081825a0002035b00bb
:104bd00083835b0094b79f00a5b79f00b6b79f0083
:104be000c7b79f002e003700ff8a9700e08f520062
:104bf000220032007f9b97001fb29700afb2970050
:104c00003604be002605be000400be0084bf9f001f
:104c1000f5b79f000801be0037ef07000801be008e
:104c2000e0579f000000fb00cf80de0072f007001d
:104c30000fba9700ffb297000001520081815a001d
:104c40000002eb00a29f9f00b39f9f00d49f9f0094
:104c50008001eb00c39f9f002f989700bf9897009b
:104c60004f999700df99970090b79f00a1b79f00d9
:104c7000b2b79f00c3b79f0009003700ff989700a5
:104c80001fb1970011027800110009000481d800bb
:104c9000a4002000110009000480d800e1579f0003
:104ca000ef5197000343b000e3579f002400370003
:104cb000b4752100ef8a9700e08f520001003200a6
:104cc000a47421001fb09700afb097003fb19700c8
:104cd000cfb197001f9b97000603e9000500330042
:104ce0008301d1000281d3008180d3000080d300f2
:104cf000f9ff37006f00600064407800e0579f00c4
:104d00000f0037001fb29700afb297003fb3970074
:104d1000cfb397000f9897000000e900050033001b
:104d20008703d1000683d3008582d3000482d30099
:104d3000f9ff3700674262000443b000e4579f0068
:104d40003c0290000404b200070032009c0278008c
:104d50006f529700844a7800050ee800e04f520039
:104d600007003a0007003700ef5097000100fb00f2
:104d70008c00780049f90700e10f40000100320083
:104d80000e07e8001f9997008f9997007f9a970068
:104d900064015100e381510068025200929f9f001c
:104da000839f9f00f49f9f00dfaa9700e08f52002f
:104db0005aff3a001fb49700afb497003fb5970071
:104dc000cfb59700e88666001e0032004fa397001b
:104dd000e00f53001b0034000802be000a03be00af
:104de000cfa497000dc2b3003c0090000004b200b5
:104df000040032001c0078000d487800000ee80026
:104e00000d00370084bf9f00f5b79f00d6b79f0005
:104e1000e7b79f008c007800000220001ff9070010
:104e20000fba9700ffb297005fb39700efb39700f8
:104e3000e10f4000010032000e07e8008904e9009c
:104e4000e9ff3a00ef9b970017407800e0579f007a
:104e5000e04f500022fa3a000e0078004f07780029
:104e60004f06be004f05be004f04be00ef05b10067
:104e700000000600881f78000004780038029000c7
:104e8000f1026200e18f520006003a0084027800cd
:104e90000520b2000800320098029000e08f520016
:104ea00005003200380290000080eb000440a000b2
:104eb00034049800200037000490a10034049800c6
:104ec00018029000e00f5200070034000402e900cd
:104ed000140498001802780094427800040ce8004a
:104ee0000580fb0005003700380290000404b20082
:104ef000ecff3a00080078008b01070038029000b0
:104f00000408b2000c003a00fa0f500008003a0002
:104f100028029000e00f5200e2ff320018029000d9
:104f2000180ce9000402e80014049800ddff3700c3
:104f3000ed0f5000e2ff32004f0478000000060041
:104f4000e10f40001c003200310290001420b2003a
:104f5000e10f520015003a0021039000e00f5300ca
:104f60001200320011029000d1029000850f520011
:104f70001000320091027800868f520002003a0041
:104f80008508e800020037000402e8009400980059
:104f90009102e90031029000850878000404b20013
:104fa00005003a00804a7800000006000080eb000f
:104fb000000006000080eb0000000600ea874700c2
:104fc000889fbe008a9fbe00810578008c9fbe002e
:104fd0008e1f7800e08f550001003200800d7800b0
:104fe000000578008a047800090578003a06fb007d
:104ff0000c007800b1ed0700e00f5000f9ff3a0017
:10500000d4022000840f560003003a008a0478007e
:1050100018c0b3000500370000447800b402200037
:10502000840f560001003a008a0478008006eb00e5
:105030006000b8000d0578000ecdb300e4c2b300e7
:10504000010037008904e8008902780070036400d9
:1050500004003a00994f120002003a000844a000f0
:10506000f8ff3700194678000c03fb000603b10077
:10507000e90f530017003e000814a0008802fb004f
:10508000e98f56000f003200f0826200010032000a
:105090000a05e900e4b79f00a200200003002000f9
:1050a0008d06e80054ef07000e4346006fb29700ec
:1050b0000683fb00070020000000430081804b00b6
:1050c000e0ff3700f0826200deff3a000a05e800e8
:1050d000dcff370054c6b300844f56000400320092
:1050e0008006eb0054c4b300844f56002e003a00f3
:1050f00059427800d5c2b300854f520002003a00f1
:105100000834a00003003700b5c2b300854f520039
:1051100001003a008904e80007c3b300890278005f
:105120008504780004c3b30039437800874f5300e7
:10513000faff32008603fb008006eb000703b10094
:10514000e98f530015003e00890278008446530021
:10515000154378008d86fb008603fb000703b10032
:10516000e98f53000d003e006a69b9008446530080
:10517000554378008d86fb008603fb00828646003f
:105180000703b100e98f530004003e006a69b900cb
:10519000844653008d86fb008286460068026400c8
:1051a000010032008d06ea00e08f55000300320056
:1051b0006202640001003200850d780009f10700e9
:1051c0006011b8000002be000003be00e4b79f00fb
:1051d000d5b79f00f4b79f0087bf9f0004f1070079
:1051e0006fb2970000017800dfb297006000b8004e
:1051f0007fb397008fbb9700e00f51006000320033
:105200000a85460032f82f00820f550003003d004a
:105210002402200014bd8800590037000008200037
:10522000800f550007003400240220006104640050
:1052300014bd88004d0032000000200001f82f004e
:105240004f003700e00f55001f003d000a05ea003f
:10525000060037000400be00922f200053012500f5
:105260006a055500e4f007000002be00e90f550092
:10527000f8ff3c00060037000400be0002002000da
:10528000031224000a05e900dbf007000002be005b
:10529000e00f5500f8ff3a000403be0002002000b2
:1052a0000308200087bf9f000400be00f4b79f00e2
:1052b000cff007007fb397008fbb9700e00f50003f
:1052c00025003d001f003700e00f550007003a00a1
:1052d000210037000400be00922f2000530125005a
:1052e0006a05550006f107000002be00e94f5500af
:1052f000f8ff3e00060037000400be000200200058
:10530000031224000a05e900fdf007000002be00b8
:10531000e00f5500f8ff3a000403be00f2ff2f0033
:10532000f3f7270087bf9f000400be00f4b79f007b
:1053300027f107007fb397008fbb9700e00f500065
:1053400005003400610464000b00320000002000fe
:10535000010828000a0037006104640001003200df
:1053600007f0a2000600be00050037000000200084
:1053700001f827000200370000002000010820008b
:105380004f0778004f06be004f05be004f04be0019
:10539000af00b1000000060008ff37008000eb00fe
:1053a00006ff370006c2b300000278000400780050
:1053b000b042780086cf5200fbff3200e9cf5200a6
:1053c000f9ff3200d6c2b30086cf520003003a0084
:1053d0000002780016c0b300050037000043eb0060
:1053e000b7c2b30087cf520001003a000002780034
:1053f0000000eb00020037006a00b90000804200a4
:10540000b402fb000503b100e98f5200faff360039
:10541000e04f5300010032000000ea0000000600e7
:105420000200fa00889fbe0001047800a0ff9f00e0
:1054300038029000840278000504b20002003200b5
:105440000000fb0035003700e202620005003a0070
:105450000403b30015049800340498000080eb00a6
:105460002e003700d8049000e08f540006003a0068
:1054700012002000e680570048009000a9ec0700c9
:105480001904980023003700a8029000e08f520012
:1054900008003a00057a21000430a0002504980095
:1054a000050c78003404980025002000550498006d
:1054b0001504980018019000a80090004800900082
:1054c00098ec0700280290008082eb0015049800f9
:1054d000affa9700054a7800040ce8002ffa97000d
:1054e000ea4f52000b003a00380290000410b2005c
:1054f0000800320018019000a800900048009000b9
:1055000088ec07000002eb00a80290001404980049
:10551000050c78002ffa97000400fb004f04be0032
:105520000080fa00000006000200fa00889fbe001a
:10553000000478000002eb008a9fbe00140498006b
:105540000080eb00380290006102620040003200ef
:10555000c47921008042eb0094cf12000f0032008a
:105560008b7921002a102000c9fd2f008b84440074
:10557000390290002410b2008a0f520002003a0053
:105580000900780036000700ec8444008b8f54003b
:10559000f7ff3a00c4792100004aeb00580190005f
:1055a000e00f51000e003a0012049800ea80570004
:1055b00012002000480090008cec0700e10f500022
:1055c00003003a006ff297000480fb0020003700d0
:1055d000380290000440a000340498001300370003
:1055e000a80090004800900080ec0700100498008c
:1055f000e00f500003003200e10f40000d003a00c0
:1056000003003700380290000440a0000200370079
:10561000380290000403b30034049800a8029000fc
:105620000002eb00050c7800140498000080eb00e9
:1056300007003700280290000000e900040c780001
:105640001004980094427800040ce8000580fb00e8
:105650004f05be004f04be000080fa0000000600a7
:10566000881f78000004780038009000000278005d
:105670001420b200e10f520005003a000002eb00d6
:105680001404980028029000040c780019003700d8
:1056900080027800242020002520b2000000eb00ca
:1056a000848f520016003a00a8009000808f5000ae
:1056b0001300320018019000800f510010003200da
:1056c0004800900017ec070018029000840f50006b
:1056d00003003200380290000403b3003404980041
:1056e000380090000002eb0014049800280290009b
:1056f000040c78000002b200010032000080eb00d0
:085700004f04780000000600d0
:020000040000fa
:1057080074610000736b00005f6700007073000035
:105718005f710000613a0000200900004750000056
:10572800535200004d2000004c450000442000006a
:105738002844000032290000206e00006f77000026
:10574800206900006e640000696300006174000055
:1057580065730000207000006f770000657200001c
:10576800207400006f20000047500000532e0000f6
:1057780000740000617300006b5f00006770000038
:10578800735f0000716100003a20000009560000b4
:105798006572000069660000793a00002054000034
:1057a8005034000031200000282b0000355600003e
:1057b8005f47000050530000292000006973000073
:1057c80020300000562e00000074000061730000b5
:1057d8006b5f000067700000735f0000716100007c
:1057e8003a20000009560000657200006966000052
:1057f800793a0000205400005034000032200000a4
:1058080028330000563300005f4700005053000063
:10581800292000006973000020300000562e000087
:1058280000740000617300006b5f00006770000087
:10583800735f0000716100003a2000000956000003
:105848006572000069660000793a00002054000083
:105858005034000031200000282b0000355600008d
:105868005f470000505300002920000069730000c2
:10587800202b0000352e0000305600002e000000be
:1058880074610000736b00005f67000070730000b4
:105898005f710000613a00002009000056650000b1
:1058a80072690000667900003a2000005450000038
:1058b800343200002028000033560000335f000017
:1058c80047500000532900002069000073200000a1
:1058d8002b3300002e330000562e00000074000009
:1058e800617300006b5f000067700000735f000069
:1058f800716100003a200000094f0000454d00008a
:1059080036310000352000002d52000045530000bc
:10591800455400002069000073200000696e0000f3
:1059280061630000746900007665000020280000ab
:10593800692e0000652e00002c2000004849000058
:1059480047480000292e0000007400006173000021
:105958006b5f000067700000735f000071610000fa
:105968003a200000094f0000454d00003631000084
:10597800352000002d52000045530000455400001a
:105988002069000073200000616300007469000052
:105998007665000020280000692e0000652e0000b2
:1059a8002c2000004c4f0000572900002e0000005a
:1059b80074610000736b00005f6700007073000083
:1059c8005f710000613a0000200900004f450000a7
:1059d8004d36000031350000207000006173000072
:1059e80073740000687200006f750000676800003b
:1059f80020690000732000006469000073610000e2
:105a0800626c0000656400002e00000074610000f4
:105a1800736b00005f670000707300005f71000027
:105a2800613a0000200900004f4500004d36000093
:105a380031350000207000006173000073740000ad
:105a4800687200006f750000676800002069000038
:105a580073200000656e0000616200006c65000044
:105a6800642e000000740000617300006b5f00008a
:105a780067700000735f0000716100003a20000049
:105a8800094f0000454d0000363100003520000068
:105a98006c6f000067670000696e000067200000f7
:105aa80069730000206400006973000061620000ef
:105ab8006c650000642e0000007400006173000033
